:100000000C942A000C9447000C9447000C94470071
:100010000C9447000C94310E0C9447000C9447004C
:100020000C9447000C9447000C9447000C94AA0AC7
:100030000C9447000C9447000C9447000C94470024
:100040000C9447000C9447000C9447000C94470014
:100050000C94470011241FBECFE5D8E0DEBFCDBF12
:1000600011E0A0E6B0E0E8E5F6E402C005900D92EC
:10007000A03CB107D9F711E0A0ECB1E001C01D929E
:10008000A03EB107E1F70E9492210C942A230C9420
:100090000000EF92FF920F931F937B018C0120E0F1
:1000A00030E040E05FE40E94550488238CF0C801F2
:1000B000B70120E030E040E05FE40E94C1010E940F
:1000C000B5049B01AC01205030404040504806C070
:1000D000C801B7010E94B5049B01AC01B901CA0176
:1000E0001F910F91FF90EF900895A0E0B0E0EBE733
:1000F000F0E00C94F322DC012B01FA019C91923088
:1001000008F439C1EB018881823008F433C194309E
:1001100069F4843009F02FC111969C91119789815F
:10012000981709F428C1A8EBB0E025C1843009F480
:1001300021C18230A9F4923009F01DC19A01AD01AC
:1001400088E0EA010990AE01E90109929E0181501F
:10015000C1F7E201898111969C918923818308C1AD
:10016000923009F407C112962D903C901397EB0141
:100170008A819B811496AD90BD90CD90DC901797AD
:10018000EC80FD800E811F819101281B390BB90184
:1001900037FF04C066277727621B730B6032710537
:1001A0000CF061C0121613066CF537014801062EDB
:1001B00004C096948794779467940A94D2F721E0C8
:1001C00030E040E050E004C0220F331F441F551FB1
:1001D0006A95D2F721503040404050402E213F21B7
:1001E00040235123211531054105510521F021E01E
:1001F00030E040E050E079018A01E628F72808293C
:1002000019293CC0232BD1F1260E371E350146019A
:10021000062E04C096948794779467940A94D2F734
:1002200021E030E040E050E004C0220F331F441FC3
:10023000551F6A95D2F721503040404050402A2146
:100240003B214C215D21211531054105510521F04E
:1002500021E030E040E050E059016A01A628B728CB
:10026000C828D9280BC0821593052CF01C01AA249C
:10027000BB24650103C0EE24FF24870111969C91E5
:10028000D20111968C91981709F445C0992339F041
:10029000A80197012A193B094C095D0906C0A6016E
:1002A00095012E193F09400B510B57FD08C01182D3
:1002B0003382228224833583468357831DC081E0A5
:1002C00081833382228288279927DC01821B930B4A
:1002D000A40BB50B84839583A683B7830DC0220F2F
:1002E000331F441F551F24833583468357838281E0
:1002F000938101979383828324813581468157813D
:10030000DA01C9010197A109B1098F5F9F4FAF4F72
:10031000BF4328F30BC0918333822282EA0CFB1C7B
:100320000C1D1D1DE482F5820683178383E0808304
:10033000248135814681578157FF1AC0C901AA27F8
:1003400097FDA095BA2F81709070A070B0705695EF
:10035000479537952795822B932BA42BB52B848318
:100360009583A683B7838281938101969383828349
:10037000DF0101C0D201CD01CDB7DEB7E2E10C94BF
:100380000F23A0E2B0E0E7ECF1E00C94FF226983D8
:100390007A838B839C832D833E834F835887E9E048
:1003A000EE2EF12CEC0EFD1ECE010196B7010E943F
:1003B000A6068E010F5E1F4FCE010596B8010E9462
:1003C000A6068A8991E089278A8BC701B801AE0108
:1003D000475E5F4F0E9475000E94D105A096E6E03F
:1003E0000C941B23A0E2B0E0E8EFF1E00C94FF22B4
:1003F00069837A838B839C832D833E834F835887C5
:10040000F9E0EF2EF12CEC0EFD1ECE010196B701A6
:100410000E94A6068E010F5E1F4FCE010596B80101
:100420000E94A606C701B801AE01475E5F4F0E9459
:1004300075000E94D105A096E6E00C941B23A0E273
:10044000B0E0E5E2F2E00C94F32269837A838B83D7
:100450009C832D833E834F835887CE010196BE0136
:10046000675F7F4F0E94A606CE010596BE016F5EB4
:100470007F4F0E94A6069985923088F08989823044
:10048000C8F0943019F4823051F404C0843029F457
:10049000923081F488EB90E0C6C0923049F420E0BD
:1004A0009A858A89981321E02A87CE010996BBC0D4
:1004B000823049F420E09A858A89981321E02A8BBA
:1004C000CE014196B0C02D843E844F8458886D88FB
:1004D0007E888F88988CEE24FF248701AA24BB2471
:1004E000650140E050E060E070E0E0E0F0E0C10174
:1004F00081709070892BE9F0E60CF71C081D191D1E
:100500009A01AB012A0D3B1D4C1D5D1D80E090E062
:10051000A0E0B0E0E614F7040805190520F481E036
:1005200090E0A0E0B0E0BA01A901480F591F6A1F8E
:100530007B1FAA0CBB1CCC1CDD1C97FE08C081E0F5
:1005400090E0A0E0B0E0A82AB92ACA2ADB2A3196B6
:10055000E032F10549F0660C771C881C991C569412
:10056000479437942794C3CFFA85EA892B893C892D
:100570008B859C85280F391F2E5F3F4F17C0CA01FE
:1005800081709070892B61F016950795F794E79428
:1005900080E090E0A0E0B0E8E82AF92A0A2B1B2BC3
:1005A00076956795579547952F5F3F4F77FDE7CF36
:1005B0000CC0440F551F661F771F17FD4160EE0CDE
:1005C000FF1C001F111F21503040403090E05907A0
:1005D00090E0690790E4790760F32B8F3C8FDB0193
:1005E000CA018F779070A070B07080349105A1051A
:1005F000B10561F447FD0AC0E114F10401051105DC
:1006000029F0405C5F4F6F4F7F4F40781A8EFE1786
:1006100011F081E08A8F4D8F5E8F6F8F78A383E01A
:10062000898FCE0149960E94D105A096E2E10C94F3
:100630000F23A8E1B0E0EFE1F3E00C94FB22698323
:100640007A838B839C832D833E834F835887B9E0C5
:10065000EB2EF12CEC0EFD1ECE010196B7010E948F
:10066000A6068E010F5E1F4FCE010596B8010E94AF
:10067000A6062985223008F47EC03989323010F46C
:10068000B8017CC08A859A8989278A87243011F02D
:10069000223031F4231709F06EC068EB70E06EC0B1
:1006A000343039F41D861E861F86188A1C861B86E8
:1006B00004C0323021F484E08987B7015FC02B8504
:1006C0003C858B899C89281B390B3C872B87ED84C3
:1006D000FE840F851889AD88BE88CF88D88CEA142F
:1006E000FB040C051D0540F4EE0CFF1C001F111F40
:1006F000215030403C872B8720E030E040E050E044
:1007000080E090E0A0E0B0E460E070E0EA14FB0478
:100710000C051D0540F0282B392B4A2B5B2BEA18C2
:10072000FB080C091D09B695A79597958795EE0CC2
:10073000FF1C001F111F6F5F7F4F6F31710531F775
:10074000DA01C9018F779070A070B0708034910584
:10075000A105B10561F427FD0AC0E114F10401050A
:10076000110529F0205C3F4F4F4F5F4F20782D87B8
:100770003E874F87588BBE01675F7F4FCB010E943A
:10078000D1056896EAE00C941723A8E1B0E0EBEC01
:10079000F3E00C94FF2269837A838B839C832D83FF
:1007A0003E834F83588789E0E82EF12CEC0EFD1E26
:1007B000CE010196B7010E94A6068E010F5E1F4F63
:1007C000CE010596B8010E94A6068985823040F0C8
:1007D0008989823028F0C701B8010E941E0701C034
:1007E00081E06896E6E00C941B23A8E1B0E0EBEF13
:1007F000F3E00C94FF2269837A838B839C832D839F
:100800003E834F83588789E0E82EF12CEC0EFD1EC5
:10081000CE010196B7010E94A6068E010F5E1F4F02
:10082000CE010596B8010E94A6068985823040F067
:100830008989823028F0C701B8010E941E0701C0D3
:1008400081E06896E6E00C941B23A8E1B0E0EBE2BF
:10085000F4E00C94FF2269837A838B839C832D833D
:100860003E834F83588789E0E82EF12CEC0EFD1E65
:10087000CE010196B7010E94A6068E010F5E1F4FA2
:10088000CE010596B8010E94A6068985823040F007
:100890008989823028F0C701B8010E941E0701C073
:1008A0008FEF6896E6E00C941B23A8E1B0E0EBE53F
:1008B000F4E00C94FF2269837A838B839C832D83DD
:1008C0003E834F83588789E0E82EF12CEC0EFD1E05
:1008D000CE010196B7010E94A6068E010F5E1F4F42
:1008E000CE010596B8010E94A6068985823040F0A7
:1008F0008989823028F0C701B8010E941E0701C013
:100900008FEF6896E6E00C941B23A8E1B0E0EBE8DB
:10091000F4E00C94FF2269837A838B839C832D837C
:100920003E834F83588789E0E82EF12CEC0EFD1EA4
:10093000CE010196B7010E94A6068E010F5E1F4FE1
:10094000CE010596B8010E94A6068985823040F046
:100950008989823028F0C701B8010E941E0701C0B2
:1009600081E06896E6E00C941B23ACE0B0E0EBEB92
:10097000F4E00C94032369837A838B839C83CE01F8
:100980000196BE016B5F7F4F0E94A6068D8182306B
:1009900061F1823050F1843021F48E81882351F14D
:1009A0002EC02F81388537FD20C06E812F31310553
:1009B0001CF06623F9F023C08EE190E0821B930BBC
:1009C00029853A854B855C8504C0569547953795B2
:1009D00027958A95D2F76623B1F0509540953095CA
:1009E00021953F4F4F4F5F4F0EC020E030E040E079
:1009F00050E009C02FEF3FEF4FEF5FE704C020E06A
:100A000030E040E050E8B901CA012C96E2E00C94D5
:100A10001F23A8E0B0E0EFE0F5E00C94FB227B019F
:100A20008C01611571058105910519F482E08983B6
:100A300060C083E089838EE1C82ED12CDC82CB821A
:100A4000ED82FE820F831887C801B7010E948205DC
:100A5000FC013197F7FF3BC0222733272E1B3F0BAA
:100A600057016801022E04C0D694C794B794A79486
:100A70000A94D2F740E050E060E070E081E090E05E
:100A8000A0E0B0E004C0880F991FAA1FBB1F2A95E1
:100A9000D2F70197A109B1098E219F21A023B1238B
:100AA0000097A105B10521F041E050E060E070E061
:100AB0004A295B296C297D294D835E836F83788762
:100AC0008EE190E08E1B9F0B9C838B8312C030972E
:100AD00081F00E2E04C0EE0CFF1C001F111F0A94A3
:100AE000D2F7ED82FE820F831887CE1ADF0ADC82EE
:100AF000CB821A82CE0101960E94D1052896EAE0A7
:100B00000C941723EF92FF920F931F937B018C019C
:100B100080E0E81680E0F80681E0080780E018072A
:100B200088F48FEFE816F1040105110531F028F083
:100B300088E090E0A0E0B0E017C080E090E0A0E0A6
:100B4000B0E012C080E0E81680E0F80680E0080718
:100B500081E0180728F088E190E0A0E0B0E004C050
:100B600080E190E0A0E0B0E020E230E040E050E042
:100B7000281B390B4A0B5B0B04C016950795F7949D
:100B8000E7948A95D2F7F701E054FF4F8081281B44
:100B9000310941095109C9011F910F91FF90EF904F
:100BA0000895DF92EF92FF920F931F93FC01E48070
:100BB000F58006811781D1808081823048F480E001
:100BC00090E0A0E1B0E0E82AF92A0A2B1B2BA5C08F
:100BD000843009F49FC0823021F4EE24FF24870181
:100BE00005C0E114F1040105110519F4E0E0F0E09D
:100BF00096C0628173819FEF623879070CF05BC009
:100C000022E83FEF261B370B2A3131052CF020E07C
:100C100030E040E050E02AC0B801A701022E04C035
:100C200076956795579547950A94D2F781E090E0BD
:100C3000A0E0B0E004C0880F991FAA1FBB1F2A952F
:100C4000D2F70197A109B1098E219F21A023B123D9
:100C50000097A105B10521F081E090E0A0E0B0E0AF
:100C60009A01AB01282B392B4A2B5B2BDA01C901E6
:100C70008F779070A070B07080349105A105B10598
:100C800039F427FF09C0205C3F4F4F4F5F4F04C02E
:100C9000215C3F4F4F4F5F4FE0E0F0E02030A0E09D
:100CA0003A07A0E04A07A0E45A0710F0E1E0F0E0BC
:100CB00079018A0127C06038710564F5FB01E158AC
:100CC000FF4FD801C7018F779070A070B07080344B
:100CD0009105A105B10539F4E7FE0DC080E490E06F
:100CE000A0E0B0E004C08FE390E0A0E0B0E0E80E48
:100CF000F91E0A1F1B1F17FF05C016950795F794CD
:100D0000E794319687E016950795F794E7948A95CE
:100D1000D1F705C0EE24FF248701EFEFF0E06E2F3E
:100D2000679566276795902F9F77D794DD24D79492
:100D30008E2F8695492F462B582F5D29B701CA0162
:100D40001F910F91FF90EF90DF900895FC01DB0160
:100D5000408151812281622F6F7770E0221F22270C
:100D6000221F9381892F880F822B282F30E0991F13
:100D70009927991F11969C93119721153105A9F573
:100D8000411551056105710511F482E037C082E813
:100D90009FEF13969C938E9312979A01AB0167E095
:100DA000220F331F441F551F6A95D1F783E08C93A0
:100DB0000DC0220F331F441F551F12968D919C9119
:100DC0001397019713969C938E931297203080E08F
:100DD000380780E0480780E4580758F314962D93AD
:100DE0003D934D935C93179708952F3F310579F408
:100DF000411551056105710519F484E08C9308953E
:100E000064FF03C081E08C9312C01C9210C02F5766
:100E1000304013963C932E93129783E08C9387E097
:100E2000440F551F661F771F8A95D1F7706414967B
:100E30004D935D936D937C93179708951F93DC01F9
:100E4000FB019C91923008F447C08081823008F405
:100E500043C0943051F411961C91843099F58181EE
:100E6000682F70E0611B71093FC0843021F092301F
:100E700031F48230B9F18181882389F12DC0119636
:100E80001C9111978230F1F081811817D9F41296D4
:100E90002D913C911397828193818217930794F04F
:100EA00028173907BCF014968D919D910D90BC9137
:100EB000A02D2481358146815781281739074A079B
:100EC0005B0718F4112341F00AC082179307A407A7
:100ED000B50740F4112319F061E070E005C06FEF31
:100EE0007FEF02C060E070E0CB011F910895DF93B7
:100EF000CF9300D000D0CDB7DEB78A8319828A8124
:100F0000282F30E03C832B838B819C81813091059D
:100F1000A1F12B813C81223031052CF48B819C8105
:100F2000009771F0AAC02B813C812230310509F471
:100F30004AC08B819C818330910509F478C09DC0A3
:100F4000A3E5B0E0E3E5F0E080818F7B8C93A3E53F
:100F5000B0E0E3E5F0E08081877F8C93AFE5B0E01F
:100F6000EFE5F0E0808180688C93A9E5B0E0E9E5E9
:100F7000F0E0808181608C9382C0A3E5B0E0E3E57E
:100F8000F0E0808180648C93A3E5B0E0E3E5F0E0DD
:100F90008081877F8C9381E062E043E00E94320F82
:100FA000882311F081E08983A3E5B0E0E3E5F0E078
:100FB00080818F7E8C93A3E5B0E0E3E5F0E0808153
:100FC00080628C935CC0A3E5B0E0E3E5F0E0808153
:100FD0008F7B8C93A3E5B0E0E3E5F0E0808188604F
:100FE0008C9381E062E043E00E94320F882311F08D
:100FF00081E08983A3E5B0E0E3E5F0E080818F7EC6
:101000008C93A3E5B0E0E3E5F0E0808180628C930F
:10101000AFE5B0E0EFE5F0E0808180688C93A9E572
:10102000B0E0E9E5F0E0808182608C9328C0A3E520
:10103000B0E0E3E5F0E0808180648C93A3E5B0E06C
:10104000E3E5F0E0808188608C9381E062E043E03A
:101050000E94320F882311F081E08983A3E5B0E07C
:10106000E3E5F0E080818F7E8C93A3E5B0E0E3E5DB
:10107000F0E0808180628C9302C082E08983898164
:101080000F900F900F900F90CF91DF910895DF9305
:10109000CF9300D000D00F92CDB7DEB79B838A8369
:1010A00019828A819B819093C1018093C0018A81BA
:1010B0009B819D838C838C819D818330910509F474
:1010C000CCC08C819D818430910568F48C819D8198
:1010D0008130910509F43DC08C819D81823091055C
:1010E00008F0A5C020C08C819D818034910509F451
:1010F0005CC08C819D818134910530F48C819D810F
:1011000088309105E1F1BFC08C819D8121E0803064
:10111000920709F460C08C819D8124E080309207A1
:1011200009F46FC0B0C0A3E5B0E0E3E5F0E0808172
:101130008E7F8C93A3E5B0E0E3E5F0E080818D7FC6
:101140008C93A3E5B0E0E3E5F0E080818B7F8C93A6
:101150009CC0A3E5B0E0E3E5F0E0808181608C9382
:10116000A3E5B0E0E3E5F0E080818D7F8C93A3E51B
:10117000B0E0E3E5F0E080818B7F8C9386C0A3E54F
:10118000B0E0E3E5F0E080818E7F8C93A3E5B0E0F2
:10119000E3E5F0E0808182608C93A3E5B0E0E3E5D5
:1011A000F0E080818B7F8C9370C0A3E5B0E0E3E535
:1011B000F0E0808181608C93A3E5B0E0E3E5F0E0AE
:1011C000808182608C93A3E5B0E0E3E5F0E080816C
:1011D0008B7F8C935AC0A3E5B0E0E3E5F0E080811B
:1011E0008E7F8C93A3E5B0E0E3E5F0E080818D7F16
:1011F0008C93A3E5B0E0E3E5F0E0808184608C931C
:1012000044C0A3E5B0E0E3E5F0E0808181608C9329
:10121000A3E5B0E0E3E5F0E080818D7F8C93A3E56A
:10122000B0E0E3E5F0E0808184608C932EC0A3E51C
:10123000B0E0E3E5F0E080818E7F8C93A3E5B0E041
:10124000E3E5F0E0808182608C93A3E5B0E0E3E524
:10125000F0E0808184608C9318C0A3E5B0E0E3E502
:10126000F0E0808181608C93A3E5B0E0E3E5F0E0FD
:10127000808182608C93A3E5B0E0E3E5F0E08081BB
:1012800084608C9302C083E0898389810F900F90E2
:101290000F900F900F90CF91DF910895EF92FF92F2
:1012A0000F931F93DF93CF93CDB7DEB763970FB63E
:1012B000F894DEBF0FBECDBF6E877F87888B998B7A
:1012C0005B8B4A8B1D868E859F85A889B98900977F
:1012D000A105B10519F481E08D870CC18091C00191
:1012E0009091C101880F991F82959295907F9827C0
:1012F000807F9827CC01A0E0B0E089879A87AB87F0
:10130000BC876E857F85888999890E9409057B0144
:101310008C0169857A858B859C850E9409059B01D6
:10132000AC01C801B7010E941903DC01CB018D8318
:101330009E83AF83B8878A899B89009719F484E0DC
:101340008D87D8C08A899B899093D3018093D201DD
:101350006D817E818F81988520E030E040E85FE3F9
:101360000E94850488238CF581E090E0A0E0B0E045
:101370008093C6019093C701A093C801B093C9019F
:101380006D817E818F81988520E030E040E853ECCC
:101390000E941F02DC01CB01BC01CD0120E030E046
:1013A00040E853E40E94F201DC01CB01BC01CD0115
:1013B0000E944900DC01CB0189839A83AB83BC8303
:1013C000E2E5F0E08981808395C06D817E818F8127
:1013D000988520E030E040E85FE30E94C503882361
:1013E00069F481E090E0A0E0B0E08093C6019093C2
:1013F000C701A093C801B093C9017CC06D817E81F3
:101400008F8198850E944900DC01CB018093C60141
:101410009093C701A093C801B093C9016D817E81EB
:101420008F8198850E944900DC01CB01BC01CD0170
:101430000E9409059B01AC016D817E818F81988599
:101440000E94C101DC01CB01BC01CD0120E030E0F4
:1014500040E050E00E94F503882309F44BC08091DE
:10146000C6019091C701A091C801B091C901019630
:10147000A11DB11D8093C6019093C701A093C8011F
:10148000B093C9016D817E818F8198850E9449004A
:10149000DC01CB01BC01CD010E9409059B01AC011F
:1014A0006D817E818F8198850E94C101DC01CB0115
:1014B000BC01CD0120E030E040E853EC0E941F0267
:1014C000DC01CB01BC01CD0120E030E040E853E479
:1014D0000E94F201DC01CB01BC01CD010E94490058
:1014E000DC01CB0189839A83AB83BC83E2E5F0E026
:1014F000898180838D8563960FB6F894DEBF0FBE19
:10150000CDBFCF91DF911F910F91FF90EF90089584
:10151000DF93CF9300D0CDB7DEB78A831982E2E59F
:10152000F0E08A81808389810F900F90CF91DF91C5
:101530000895DF93CF9300D0CDB7DEB78A831982A9
:10154000ECE5F0E08A81808389810F900F90CF9144
:10155000DF9108951F920F920FB60F9211242F93CF
:101560003F934F935F936F937F938F939F93AF932B
:10157000BF93EF93FF93DF93CF93CDB7DEB7809107
:10158000D8019091D901A091DA01B091DB010196C7
:10159000A11DB11D8093D8019093D901A093DA01C8
:1015A000B093DB012091C6013091C7014091C80181
:1015B0005091C9018091D8019091D901A091DA018F
:1015C000B091DB01281739074A075B0769F4E091FE
:1015D000D201F091D30109951092D8011092D9014E
:1015E0001092DA011092DB01CF91DF91FF91EF9120
:1015F000BF91AF919F918F917F916F915F914F912B
:101600003F912F910F900FBE0F901F901895DF9371
:10161000CF9300D000D0CDB7DEB78A8319828A81FC
:10162000282F30E03C832B838B819C818130910576
:10163000A1F12B813C81223031052CF48B819C81DE
:10164000009771F0AAC02B813C812230310509F44A
:101650004AC08B819C818330910509F478C09DC07C
:10166000A5E4B0E0E5E4F0E080818F7B8C93A5E415
:10167000B0E0E5E4F0E08081877F8C93AFE5B0E0F7
:10168000EFE5F0E0808180688C93A9E5B0E0E9E5C2
:10169000F0E0808180648C9382C0A5E4B0E0E5E452
:1016A000F0E0808180648C93A5E4B0E0E5E4F0E0B4
:1016B0008081877F8C9383E062E047E00E94320F55
:1016C000882311F081E08983A5E4B0E0E5E4F0E04F
:1016D00080818F7E8C93A5E4B0E0E5E4F0E080812A
:1016E00080628C935CC0A5E4B0E0E5E4F0E080812A
:1016F0008F7B8C93A5E4B0E0E5E4F0E08081886026
:101700008C9383E062E047E00E94320F882311F05F
:1017100081E08983A5E4B0E0E5E4F0E080818F7E9C
:101720008C93A5E4B0E0E5E4F0E0808180628C93E6
:10173000AFE5B0E0EFE5F0E0808180688C93A9E54B
:10174000B0E0E9E5F0E0808180648C9328C0A5E4F6
:10175000B0E0E5E4F0E0808180648C93A5E4B0E043
:10176000E5E4F0E0808188608C9383E062E047E00C
:101770000E94320F882311F081E08983A5E4B0E054
:10178000E5E4F0E080818F7E8C93A5E4B0E0E5E4B1
:10179000F0E0808180628C9302C082E0898389813D
:1017A0000F900F900F900F90CF91DF910895DF93DE
:1017B000CF9300D000D00F92CDB7DEB79B838A8342
:1017C00019828A819B819093C5018093C4018A818B
:1017D0009B819D838C838C819D818032910509F44E
:1017E0007AC08C819D818132910590F48C819D819C
:1017F0008130910509F443C08C819D818130910530
:1018000040F18C819D818830910509F44EC0D1C092
:101810008C819D818038910509F489C08C819D81DE
:101820008138910538F48C819D818034910509F4CB
:1018300068C0BFC08C819D8121E08030920709F48F
:101840008CC08C819D8124E08030920709F49BC07C
:10185000B0C0A5E4B0E0E5E4F0E080818E7F8C9339
:10186000A5E4B0E0E5E4F0E080818D7F8C93A5E411
:10187000B0E0E5E4F0E080818B7F8C939CC0A5E430
:10188000B0E0E5E4F0E0808181608C93A5E4B0E015
:10189000E5E4F0E080818D7F8C93A5E4B0E0E5E4A1
:1018A000F0E080818B7F8C9386C0A5E4B0E0E5E416
:1018B000F0E080818E7F8C93A5E4B0E0E5E4F0E079
:1018C000808182608C93A5E4B0E0E5E4F0E0808163
:1018D0008B7F8C9370C0A5E4B0E0E5E4F0E08081FC
:1018E00081608C93A5E4B0E0E5E4F0E08081826063
:1018F0008C93A5E4B0E0E5E4F0E080818B7F8C93ED
:101900005AC0A5E4B0E0E5E4F0E080818E7F8C93DE
:10191000A5E4B0E0E5E4F0E080818D7F8C93A5E460
:10192000B0E0E5E4F0E0808184608C9344C0A5E4FD
:10193000B0E0E5E4F0E0808181608C93A5E4B0E064
:10194000E5E4F0E080818D7F8C93A5E4B0E0E5E4F0
:10195000F0E0808184608C932EC0A5E4B0E0E5E4E3
:10196000F0E080818E7F8C93A5E4B0E0E5E4F0E0C8
:10197000808182608C93A5E4B0E0E5E4F0E08081B2
:1019800084608C9318C0A5E4B0E0E5E4F0E08081C9
:1019900081608C93A5E4B0E0E5E4F0E080818260B2
:1019A0008C93A5E4B0E0E5E4F0E0808184608C9362
:1019B00002C083E0898389810F900F900F900F9070
:1019C0000F90CF91DF910895EF92FF920F931F93A5
:1019D000DF93CF93CDB7DEB764970FB6F894DEBF31
:1019E0000FBECDBF6E877F87888B998B5B8B4A8BB1
:1019F0001D868E859F85A889B9890097A105B105A7
:101A000019F481E08C8B0EC18091C4019091C501C5
:101A1000880F991F82959295907F9827807F9827AD
:101A2000CC01A0E0B0E089879A87AB87BC876E8540
:101A30007F85888999890E9409057B018C016985C8
:101A40007A858B859C850E9409059B01AC01C801A4
:101A5000B7010E941903DC01CB018D839E83AF8304
:101A6000B8878A899B89009719F484E08D87D8C04C
:101A70008A899B899093D7018093D6016D817E815D
:101A80008F81988520E030E040E85FE30E94850484
:101A900088238CF581E090E0A0E0B0E08093CE0157
:101AA0009093CF01A093D001B093D1016D817E813D
:101AB0008F81988520E030E040E853EC0E941F02BF
:101AC000DC01CB01BC01CD0120E030E040E853E473
:101AD0000E94F201DC01CB01BC01CD010E94490052
:101AE000DC01CB0189839A83AB83BC83E4E4F0E01F
:101AF0008981808395C06D817E818F81988520E06A
:101B000030E040E85FE30E94C503882369F481E088
:101B100090E0A0E0B0E08093CE019093CF01A0933D
:101B2000D001B093D1017CC06D817E818F81988579
:101B30000E944900DC01CB018093CE019093CF013C
:101B4000A093D001B093D1016D817E818F81988562
:101B50000E944900DC01CB01BC01CD010E940905B6
:101B60009B01AC016D817E818F8198850E94C101AE
:101B7000DC01CB01BC01CD0120E030E040E050E0D1
:101B80000E94F503882309F44BC08091CE01909107
:101B9000CF01A091D001B091D1010196A11DB11D3D
:101BA0008093CE019093CF01A093D001B093D10147
:101BB0006D817E818F8198850E944900DC01CB0177
:101BC000BC01CD010E9409059B01AC016D817E81A4
:101BD0008F8198850E94C101DC01CB01BC01CD0140
:101BE00020E030E040E853EC0E941F02DC01CB0112
:101BF000BC01CD0120E030E040E853E40E94F20156
:101C0000DC01CB01BC01CD010E944900DC01CB010C
:101C100089839A83AB83BC83E4E4F0E08981808389
:101C20008D858C8B8C8964960FB6F894DEBF0FBEC1
:101C3000CDBFCF91DF911F910F91FF90EF9008954D
:101C4000DF93CF9300D0CDB7DEB78A831982E3E468
:101C5000F0E08A81808389810F900F90CF91DF918E
:101C600008951F920F920FB60F9211242F933F9356
:101C70004F935F936F937F938F939F93AF93BF9394
:101C8000EF93FF93DF93CF93CDB7DEB78091DC0165
:101C90009091DD01A091DE01B091DF010196A11DBF
:101CA000B11D8093DC019093DD01A093DE01B09320
:101CB000DF012091CE013091CF014091D0015091B0
:101CC000D1018091DC019091DD01A091DE01B09104
:101CD000DF01281739074A075B0769F4E091D6014D
:101CE000F091D70109951092DC011092DD0110925C
:101CF000DE011092DF01CF91DF91FF91EF91BF9153
:101D0000AF919F918F917F916F915F914F913F9193
:101D10002F910F900FBE0F901F901895DF93CF93C8
:101D200000D000D00F92CDB7DEB780EA96E8A1E0F0
:101D3000B0E089839A83AB83BC8315C089819A8183
:101D4000AB81BC810097A105B10511F41D8218C0BB
:101D500089819A81AB81BC810197A109B1098983ED
:101D60009A83AB83BC83ECE3F0E08081882F90E022
:101D70008270907095958795009701F781E08D832B
:101D80008D810F900F900F900F900F90CF91DF915A
:101D90000895DF93CF9300D0CDB7DEB79A838983C0
:101DA000EFE3F0E089819A81892F99278083EEE320
:101DB000F0E0898180830F900F90CF91DF9108959B
:101DC000DF93CF9300D000D0CDB7DEB79B838A835B
:101DD0006C830E948E0E8823C9F08A819B810E94A9
:101DE000C90EEDE3F0E08C818083EFE5F0E08081C7
:101DF0008983AFE5B0E0EFE5F0E080818F778C93E9
:101E0000E29AE19AEFE5F0E0898180830F900F90EC
:101E10000F900F90CF91DF910895DF93CF9300D073
:101E20000F92CDB7DEB79A8389830E948E0E8823E6
:101E300019F48FEF8B830FC089819A810E94C90E9C
:101E4000ACE3B0E0ECE3F0E0808181608C93EDE303
:101E5000F0E080818B838B810F900F900F90CF915A
:101E6000DF910895DF93CF9300D000D000D0CDB79D
:101E7000DEB78A836B834C8319828C81883018F09B
:101E800082E08983CDC18A81282F30E03E832D8373
:101E90008D819E818130910509F473C02D813E8131
:101EA000223031052CF48D819E81009771F0B6C1EE
:101EB0002D813E812230310509F4D2C08D819E8171
:101EC0008330910509F43BC1A9C18B818823A9F412
:101ED000AAE3B0E0EAE3F0E08081482F8C81282F6C
:101EE00030E081E090E0022E02C0880F991F0A9432
:101EF000E2F7809584238C9393C18B81813039F5EF
:101F0000AAE3B0E0EAE3F0E08081482F8C81282F3B
:101F100030E081E090E002C0880F991F2A95E2F737
:101F2000809584238C93ABE3B0E0EBE3F0E0808119
:101F3000482F8C81282F30E081E090E0022E02C0F3
:101F4000880F991F0A94E2F7842B8C9369C18B81C7
:101F50008230A1F4AAE3B0E0EAE3F0E08081482F08
:101F60008C81282F30E081E090E0022E02C0880FA3
:101F7000991F0A94E2F7842B8C9352C181E08983E4
:101F80004FC18B81882341F5A7E3B0E0E7E3F0E0A0
:101F90008081482F8C81282F30E081E090E002C0C2
:101FA000880F991F2A95E2F7809584238C93A8E3E4
:101FB000B0E0E8E3F0E08081482F8C81282F30E00A
:101FC00081E090E0022E02C0880F991F0A94E2F788
:101FD000809584238C9324C18B81813039F5A7E3CC
:101FE000B0E0E7E3F0E08081482F8C81282F30E0DB
:101FF00081E090E002C0880F991F2A95E2F7809552
:1020000084238C93A8E3B0E0E8E3F0E08081482FDC
:102010008C81282F30E081E090E0022E02C0880FF2
:10202000991F0A94E2F7842B8C93FAC08B8182303B
:10203000A1F4A7E3B0E0E7E3F0E08081482F8C81D2
:10204000282F30E081E090E0022E02C0880F991F17
:102050000A94E2F7842B8C93E3C081E08983E0C08B
:102060008B81882341F5A4E3B0E0E4E3F0E08081D4
:10207000482F8C81282F30E081E090E002C0880F4B
:10208000991F2A95E2F7809584238C93A5E3B0E00D
:10209000E5E3F0E08081482F8C81282F30E081E05B
:1020A00090E0022E02C0880F991F0A94E2F78095F3
:1020B00084238C93B5C08B81813039F5A4E3B0E0E3
:1020C000E4E3F0E08081482F8C81282F30E081E02C
:1020D00090E002C0880F991F2A95E2F7809584232B
:1020E0008C93A5E3B0E0E5E3F0E08081482F8C819C
:1020F000282F30E081E090E0022E02C0880F991F67
:102100000A94E2F7842B8C938BC08B818230A1F4EC
:10211000A4E3B0E0E4E3F0E08081482F8C81282F35
:1021200030E081E090E0022E02C0880F991F0A94EF
:10213000E2F7842B8C9374C081E0898371C08B811A
:10214000882341F5A1E3B0E0E1E3F0E08081482F8E
:102150008C81282F30E081E090E002C0880F991F29
:102160002A95E2F7809584238C93A2E3B0E0E2E322
:10217000F0E08081482F8C81282F30E081E090E0D2
:10218000022E02C0880F991F0A94E2F780958423DB
:102190008C9346C08B81813039F5A1E3B0E0E1E357
:1021A000F0E08081482F8C81282F30E081E090E0A2
:1021B00002C0880F991F2A95E2F7809584238C939B
:1021C000A2E3B0E0E2E3F0E08081482F8C81282F89
:1021D00030E081E090E0022E02C0880F991F0A943F
:1021E000E2F7842B8C931CC08B818230A1F4A1E395
:1021F000B0E0E1E3F0E08081482F8C81282F30E0CF
:1022000081E090E0022E02C0880F991F0A94E2F745
:10221000842B8C9305C081E0898302C083E089838D
:10222000898126960FB6F894DEBF0FBECDBFCF9141
:10223000DF910895DF93CF9300D000D000D0CDB7C9
:10224000DEB78A836B834C8319828B81883018F0C8
:1022500082E08983ECC08A81282F30E03E832D8381
:102260008D819E818130910509F449C02D813E8187
:10227000223031052CF48D819E81009771F0D5C0FC
:102280002D813E812230310509F46BC08D819E8104
:102290008330910509F497C0C8C08C818130A1F4C6
:1022A000ABE3B0E0EBE3F0E08081482F8B81282F97
:1022B00030E081E090E0022E02C0880F991F0A945E
:1022C000E2F7842B8C93B3C08C818823A9F4ABE311
:1022D000B0E0EBE3F0E08081482F8B81282F30E0E5
:1022E00081E090E0022E02C0880F991F0A94E2F765
:1022F000809584238C939BC081E0898398C08C81D6
:102300008130A1F4A8E3B0E0E8E3F0E08081482F59
:102310008B81282F30E081E090E0022E02C0880FF0
:10232000991F0A94E2F7842B8C9381C08C818823B7
:10233000A9F4A8E3B0E0E8E3F0E08081482F8B81C6
:10234000282F30E081E090E0022E02C0880F991F14
:102350000A94E2F7809584238C9369C081E0898395
:1023600066C08C818130A1F4A5E3B0E0E5E3F0E044
:102370008081482F8B81282F30E081E090E0022E71
:1023800002C0880F991F0A94E2F7842B8C934FC0E8
:102390008C818823A9F4A5E3B0E0E5E3F0E0808137
:1023A000482F8B81282F30E081E090E0022E02C080
:1023B000880F991F0A94E2F7809584238C9337C085
:1023C00081E0898334C08C818130A1F4A2E3B0E044
:1023D000E2E3F0E08081482F8B81282F30E081E01C
:1023E00090E0022E02C0880F991F0A94E2F7842B16
:1023F0008C931DC08C818823A9F4A2E3B0E0E2E3B2
:10240000F0E08081482F8B81282F30E081E090E040
:10241000022E02C0880F991F0A94E2F78095842348
:102420008C9305C081E0898302C083E08983898120
:1024300026960FB6F894DEBF0FBECDBFCF91DF91C9
:102440000895DF93CF9300D000D00F92CDB7DEB7C1
:102450008A836B8319828A81843018F083E08983B0
:1024600077C08B81883018F082E0898371C08A81BF
:10247000282F30E03D832C838C819D818130910514
:1024800049F12C813D81223031052CF48C819D81D4
:10249000009761F05BC02C813D812230310571F1E4
:1024A0008C819D8183309105E9F150C0ABE3B0E0B0
:1024B000EBE3F0E08081482F8B81282F30E081E032
:1024C00090E0022E02C0880F991F0A94E2F7842739
:1024D0008C933EC0A8E3B0E0E8E3F0E08081482FB1
:1024E0008B81282F30E081E090E0022E02C0880F1F
:1024F000991F0A94E2F784278C932AC0A5E3B0E0E1
:10250000E5E3F0E08081482F8B81282F30E081E0E7
:1025100090E0022E02C0880F991F0A94E2F78427E8
:102520008C9316C0A2E3B0E0E2E3F0E08081482F94
:102530008B81282F30E081E090E0022E02C0880FCE
:10254000991F0A94E2F784278C9302C081E0898363
:1025500089810F900F900F900F900F90CF91DF9186
:102560000895DF93CF93CDB7DEB727970FB6F894D2
:10257000DEBF0FBECDBF8A836B835D834C83198220
:102580008C819D81009719F485E08983AEC08B8191
:10259000883018F082E08983A8C08A81282F30E033
:1025A0003F832E834E815F8141305105C1F18E8181
:1025B0009F818230910534F42E813F8121153105B0
:1025C00071F08DC04E815F814230510509F447C0E2
:1025D0008E819F818330910509F461C080C0E9E359
:1025E000F0E08081482F50E08B81282F30E081E09F
:1025F00090E002C0880F991F2A95E2F79A012823DC
:1026000039238B81882F90E0A90102C05595479509
:102610008A95E2F7CA01EC81FD81808366C0E6E31A
:10262000F0E08081482F50E08B81282F30E081E05E
:1026300090E002C0880F991F2A95E2F79A0128239B
:1026400039238B81882F90E0A90102C055954795C9
:102650008A95E2F7CA01EC81FD81808346C0E3E3FD
:10266000F0E08081482F50E08B81282F30E081E01E
:1026700090E002C0880F991F2A95E2F79A0128235B
:1026800039238B81882F90E0A90102C05595479589
:102690008A95E2F7CA01EC81FD81808326C0E0E3E0
:1026A000F0E08081482F50E08B81282F30E081E0DE
:1026B00090E002C0880F991F2A95E2F79A0128231B
:1026C00039238B81882F90E0A90102C05595479549
:1026D0008A95E2F7CA01EC81FD81808306C083E020
:1026E0008983EC81FD818FEF8083898127960FB6E6
:1026F000F894DEBF0FBECDBFCF91DF910895DF9379
:10270000CF9300D000D00F92CDB7DEB78A836B8312
:1027100019828A81282F30E03D832C838C819D8112
:102720008130910509F43FC02C813D812230310573
:102730002CF48C819D81009771F0ADC02C813D817E
:102740002230310509F457C08C819D818330910579
:1027500009F479C0A0C08B81882321F4EAE3F0E07A
:1027600010829BC08B81813041F4EAE3F0E010825B
:10277000EBE3F0E08FEF808390C08B81823029F40F
:10278000EAE3F0E08FEF808388C08B81882341F0FB
:102790008B818F3F29F0EAE3F0E08B8180837DC05D
:1027A00084E089837AC08B81882321F4E7E3F0E019
:1027B000108273C08B81813041F4E7E3F0E0108236
:1027C000E8E3F0E08FEF808368C08B81823029F4EA
:1027D000E7E3F0E08FEF808360C08B81882341F0D6
:1027E0008B818F3F29F0E7E3F0E08B81808355C038
:1027F00084E0898352C08B81882321F4E4E3F0E0F4
:1028000010824BC08B81813041F4E4E3F0E0108210
:10281000E5E3F0E08FEF808340C08B81823029F4C4
:10282000E4E3F0E08FEF808338C08B81882341F0B0
:102830008B818F3F29F0E4E3F0E08B8180832DC012
:1028400084E089832AC08B81882321F4E1E3F0E0CE
:10285000108223C08B81813041F4E1E3F0E01082EB
:10286000E2E3F0E08FEF808318C08B81823029F49F
:10287000E1E3F0E08FEF808310C08B81882341F08B
:102880008B818F3F29F0EAE3F0E08B81808305C0E4
:1028900084E0898302C083E0898389810F900F904F
:1028A0000F900F900F90CF91DF910895DF93CF930A
:1028B00000D000D000D0CDB7DEB78B836C831A82F6
:1028C00019828C81813019F48FEF898307C08C8144
:1028D000882311F4198202C08C8189838B81282F6F
:1028E00030E03E832D838D819E8181309105D1F032
:1028F0002D813E81223031052CF48D819E810097FF
:1029000061F01FC02D813E812230310581F08D8123
:102910009E818330910581F014C0EBE3F0E0898162
:10292000808311C0E8E3F0E0898180830CC0E5E397
:10293000F0E08981808307C0E2E3F0E08981808351
:1029400002C083E08A838A8126960FB6F894DEBFA0
:102950000FBECDBFCF91DF910895DF93CF9300D00D
:1029600000D0CDB7DEB78A8319828A81282F30E064
:102970003C832B838B819C8181309105E9F02B81F5
:102980003C81223031052CF48B819C81009761F0D1
:102990002BC02B813C8122303105B1F08B819C8191
:1029A00083309105C9F020C0ABE3B0E0EBE3F0E089
:1029B000808180958C931AC0A8E3B0E0E8E3F0E052
:1029C000808180958C9312C0A5E3B0E0E5E3F0E050
:1029D000808180958C930AC0A2E3B0E0E2E3F0E04E
:1029E000808180958C9302C083E0898389810F90D8
:1029F0000F900F900F90CF91DF910895DF93CF93B9
:102A000000D000D000D0CDB7DEB78A837C836B8343
:102A100019828B819C81009719F485E089833DC0E0
:102A20008A81282F30E03E832D838D819E818130E5
:102A30009105E1F02D813E81223031052CF48D810C
:102A40009E81009761F027C02D813E8122303105A3
:102A5000A1F08D819E8183309105B1F01CC0E9E326
:102A6000F0E08081EB81FC81808317C0E6E3F0E039
:102A70008081EB81FC81808310C0E3E3F0E0808102
:102A8000EB81FC81808309C0E0E3F0E08081EB8191
:102A9000FC81808302C083E08983898126960FB6FA
:102AA000F894DEBF0FBECDBFCF91DF910895DF93C5
:102AB000CF930F92CDB7DEB7198208C082E061E0F4
:102AC00049810E94320F89818F5F89838981853096
:102AD000A8F30F90CF91DF910895DF93CF93CDB7F7
:102AE000DEB762970FB6F894DEBF0FBECDBF898BFD
:102AF0008989853018F081E08A8B8DC09E01215F25
:102B00003F4F82E06989A9010E94B11280E090E004
:102B1000A0EAB1E48B879C87AD87BE876B857C85F7
:102B20008D859E8520E030E04AEF54E40E941F022C
:102B3000DC01CB018F839887A987BA876F8178855D
:102B400089859A8520E030E040E85FE30E948504B3
:102B500088232CF481E090E09E838D833FC06F81B9
:102B6000788589859A8520E03FEF4FE757E40E94FA
:102B7000250418164CF56B857C858D859E8520E097
:102B800030E040E251E40E941F02DC01CB01BC01B5
:102B9000CD010E944900DC01CB019E838D830FC0D3
:102BA00088EC90E09C838B838B819C810197F1F76B
:102BB0009C838B838D819E8101979E838D838D81E4
:102BC0009E81009769F714C06F81788589859A8501
:102BD0000E944900DC01CB019E838D838D819E8103
:102BE0009A83898389819A810197F1F79A838983EE
:102BF0009E01205F3F4F82E06989A9010E94B112C6
:102C00009F858889981729F48889882311F41A8A5E
:102C100002C081E08A8B8A8962960FB6F894DEBF83
:102C20000FBECDBFCF91DF9108950F931F93DF9318
:102C3000CF93CDB7DEB7C455D0400FB6F894DEBF02
:102C40000FBECDBFFE01EF5AFF4F80E090E0A0E243
:102C5000B2E480839183A283B3838E01035B1F4F11
:102C6000FE01EF5AFF4F608171818281938120E0E4
:102C700030E04AEF54E40E941F02DC01CB01F8016E
:102C800080839183A283B383FE01E35BFF4F608166
:102C900071818281938120E030E040E85FE30E940F
:102CA0008504882344F4FE01E55BFF4F81E090E05A
:102CB0009183808364C0FE01E35BFF4F608171817B
:102CC0008281938120E03FEF4FE757E40E94250483
:102CD00018160CF043C0FE01EF5AFF4F608171815E
:102CE0008281938120E030E040E251E40E941F02A3
:102CF000DC01CB018E01055B1F4FBC01CD010E94A1
:102D00004900DC01CB01F801918380831FC0FE01E3
:102D1000E75BFF4F88EC90E091838083FE01E75BE7
:102D2000FF4F808191810197F1F7FE01E75BFF4F33
:102D300091838083DE01A55BBF4FFE01E55BFF4F02
:102D400080819181019711969C938E93FE01E55BA2
:102D5000FF4F808191810097D1F627C08E01055BDE
:102D60001F4FFE01E35BFF4F608171818281938180
:102D70000E944900DC01CB01F80191838083DE01D0
:102D8000A95BBF4FFE01E55BFF4F808191818D9371
:102D90009C93FE01E95BFF4F808191810197F1F7E0
:102DA000FE01E95BFF4F9183808380E062E044E0B5
:102DB0000E94320F80E062E045E00E94320F80E026
:102DC00062E046E00E94320F80E062E047E00E944D
:102DD000320F81E062E040E00E94320F81E062E069
:102DE00041E00E94320F81E062E042E00E94320F37
:102DF00082E00E94DE1BFE01ED5BFF4F80E090E071
:102E0000A0E8BFE380839183A283B3838E01015C3A
:102E10001F4FFE01ED5BFF4F6081718182819381C5
:102E200020E030E04AEF54E40E941F02DC01CB01B5
:102E3000F80180839183A283B383FE01FF966081B2
:102E400071818281938120E030E040E85FE30E945D
:102E5000850488232CF481E090E09EAF8DAF46C0BE
:102E6000FE01FF96608171818281938120E03FEFB6
:102E70004FE757E40E942504181664F5FE01ED5B48
:102E8000FF4F608171818281938120E030E040E2D8
:102E900051E40E941F02DC01CB01BC01CD010E9464
:102EA0004900DC01CB019EAF8DAF0FC088EC90E0F4
:102EB0009CAF8BAF8BAD9CAD0197F1F79CAF8BAF07
:102EC0008DAD9EAD01979EAF8DAF8DAD9EAD009740
:102ED00069F716C0FE01FF9660817181828193813E
:102EE0000E944900DC01CB019EAF8DAF8DAD9EAD40
:102EF0009AAF89AF89AD9AAD0197F1F79AAF89AFD3
:102F000088E20E94DE1B80E090E0A0E8BFE38DAB8A
:102F10009EABAFABB8AF6DA97EA98FA998AD20E0ED
:102F200030E04AEF54E40E941F02DC01CB0189AB80
:102F30009AABABABBCAB69A97AA98BA99CA920E0E1
:102F400030E040E85FE30E94850488232CF481E0B0
:102F500090E098AB8FA73FC069A97AA98BA99CA9DB
:102F600020E03FEF4FE757E40E94250418164CF588
:102F70006DA97EA98FA998AD20E030E040E251E430
:102F80000E941F02DC01CB01BC01CD010E9449005F
:102F9000DC01CB0198AB8FA70FC088EC90E09EA717
:102FA0008DA78DA59EA50197F1F79EA78DA78FA54B
:102FB00098A9019798AB8FA78FA598A9009769F753
:102FC00014C069A97AA98BA99CA90E944900DC01B7
:102FD000CB0198AB8FA78FA598A99CA78BA78BA592
:102FE0009CA50197F1F79CA78BA78EE00E94DE1BA2
:102FF00080E090E0A0E8BFE38FA398A7A9A7BAA7B5
:103000006FA178A589A59AA520E030E04AEF54E4A5
:103010000E941F02DC01CB018BA39CA3ADA3BEA326
:103020006BA17CA18DA19EA120E030E040E85FE390
:103030000E94850488232CF481E090E09AA389A360
:103040003FC06BA17CA18DA19EA120E03FEF4FE787
:1030500057E40E94250418164CF56FA178A589A5A0
:103060009AA520E030E040E251E40E941F02DC011A
:10307000CB01BC01CD010E944900DC01CB019AA328
:1030800089A30FC088EC90E098A38F8F8F8D98A1B3
:103090000197F1F798A38F8F89A19AA101979AA31D
:1030A00089A389A19AA1009769F714C06BA17CA19B
:1030B0008DA19EA10E944900DC01CB019AA389A3A6
:1030C00089A19AA19E8F8D8F8D8D9E8D0197F1F78D
:1030D0009E8F8D8F81E00E94DE1B80E090E0A0E853
:1030E000B0E4898F9A8FAB8FBC8F698D7A8D8B8D71
:1030F0009C8D20E030E04AEF54E40E941F02DC0186
:10310000CB018D8B9E8BAF8BB88F6D897E898F891C
:10311000988D20E030E040E85FE30E94850488233A
:103120002CF481E090E09C8B8B8B3FC06D897E8975
:103130008F89988D20E03FEF4FE757E40E942504E8
:1031400018164CF5698D7A8D8B8D9C8D20E030E0C2
:1031500040E251E40E941F02DC01CB01BC01CD0121
:103160000E944900DC01CB019C8B8B8B0FC088EC4B
:1031700090E09A8B898B89899A890197F1F79A8BCC
:10318000898B8B899C8901979C8B8B8B8B899C89E4
:10319000009769F714C06D897E898F89988D0E9488
:1031A0004900DC01CB019C8B8B8B8B899C89988B94
:1031B0008F878F8598890197F1F7988B8F8786E0A5
:1031C0000E94DE1B80E090E0A0E8BFE38B879C8735
:1031D000AD87BE876B857C858D859E8520E030E040
:1031E0004AEF54E40E941F02DC01CB018F839887D1
:1031F000A987BA876F81788589859A8520E030E034
:1032000040E85FE30E94850488232CF481E090E08D
:103210009E838D833FC06F81788589859A8520E064
:103220003FEF4FE757E40E94250418164CF56B85D5
:103230007C858D859E8520E030E040E251E40E944F
:103240001F02DC01CB01BC01CD010E944900DC0161
:10325000CB019E838D830FC088EC90E09C838B8391
:103260008B819C810197F1F79C838B838D819E815B
:1032700001979E838D838D819E81009769F714C08D
:103280006F81788589859A850E944900DC01CB0190
:103290009E838D838D819E819A83898389819A8182
:1032A0000197F1F79A838983CC5ADF4F0FB6F894D0
:1032B000DEBF0FBECDBFCF91DF911F910F9108955B
:1032C000DF93CF93CDB7DEB7E9970FB6F894DEBFA3
:1032D0000FBECDBF89AF81E060E041E00E941A11CE
:1032E00081E061E040E00E941A1189AD882F90E0F2
:1032F000807190709595879595958795959587950B
:1033000095958795982F80E064E0492F0E941A11C7
:1033100089AD882F90E080729070959587959595EE
:103320008795959587959595879595958795982FE8
:1033300080E065E0492F0E941A1189AD882F90E046
:1033400080749070082E892F000C881F990B000C38
:10335000881F991F982F80E066E0492F0E941A115C
:1033600089AD982F991F9927991F80E067E0492F11
:103370000E941A1181E062E041E00E941A1180E08F
:1033800090E0A0E8BFE38DAB9EABAFABB8AF6DA94B
:103390007EA98FA998AD20E030E04AEF54E40E9466
:1033A0001F02DC01CB0189AB9AABABABBCAB69A90B
:1033B0007AA98BA99CA920E030E040E85FE30E9455
:1033C000850488232CF481E090E098AB8FA73FC060
:1033D00069A97AA98BA99CA920E03FEF4FE757E4A0
:1033E0000E94250418164CF56DA97EA98FA998ADE9
:1033F00020E030E040E251E40E941F02DC01CB01FA
:10340000BC01CD010E944900DC01CB0198AB8FA724
:103410000FC088EC90E09EA78DA78DA59EA5019773
:10342000F1F79EA78DA78FA598A9019798AB8FA7B5
:103430008FA598A9009769F714C069A97AA98BA9E3
:103440009CA90E944900DC01CB0198AB8FA78FA5F6
:1034500098A99CA78BA78BA59CA50197F1F79CA782
:103460008BA781E062E040E00E941A1180E090E0CA
:10347000A0E8BFE38FA398A7A9A7BAA76FA178A5D3
:1034800089A59AA520E030E04AEF54E40E941F028B
:10349000DC01CB018BA39CA3ADA3BEA36BA17CA13C
:1034A0008DA19EA120E030E040E85FE30E9485040A
:1034B00088232CF481E090E09AA389A33FC06BA1FC
:1034C0007CA18DA19EA120E03FEF4FE757E40E9431
:1034D000250418164CF56FA178A589A59AA520E0BA
:1034E00030E040E251E40E941F02DC01CB01BC014C
:1034F000CD010E944900DC01CB019AA389A30FC032
:1035000088EC90E098A38F8F8F8D98A10197F1F7A9
:1035100098A38F8F89A19AA101979AA389A389A1C2
:103520009AA1009769F714C06BA17CA18DA19EA1FF
:103530000E944900DC01CB019AA389A389A19AA129
:103540009E8F8D8F8D8D9E8D0197F1F79E8F8D8F24
:1035500081E060E041E00E941A1181E061E040E01A
:103560000E941A1189AD982F917080E064E0492F74
:103570000E941A1189AD882F90E082709070959505
:103580008795982F80E065E0492F0E941A1189AD38
:10359000882F90E084709070959587959595879584
:1035A000982F80E066E0492F0E941A1189AD882F7C
:1035B00090E08870907095958795959587959595ED
:1035C0008795982F80E067E0492F0E941A1181E0CB
:1035D00062E041E00E941A1180E090E0A0E8BFE3C1
:1035E000898F9A8FAB8FBC8F698D7A8D8B8D9C8DD7
:1035F00020E030E04AEF54E40E941F02DC01CB01DE
:103600008D8B9E8BAF8BB88F6D897E898F89988DBE
:1036100020E030E040E85FE30E94850488232CF43A
:1036200081E090E09C8B8B8B3FC06D897E898F8978
:10363000988D20E03FEF4FE757E40E9425041816CD
:103640004CF5698D7A8D8B8D9C8D20E030E040E2C9
:1036500051E40E941F02DC01CB01BC01CD010E949C
:103660004900DC01CB019C8B8B8B0FC088EC90E078
:103670009A8B898B89899A890197F1F79A8B898B23
:103680008B899C8901979C8B8B8B8B899C8900975C
:1036900069F714C06D897E898F89988D0E944900D1
:1036A000DC01CB019C8B8B8B8B899C89988B8F87C2
:1036B0008F8598890197F1F7988B8F8781E062E079
:1036C00040E00E941A1180E090E0A0E8BFE38B8701
:1036D0009C87AD87BE876B857C858D859E8520E028
:1036E00030E04AEF54E40E941F02DC01CB018F83DB
:1036F0009887A987BA876F81788589859A8520E020
:1037000030E040E85FE30E94850488232CF481E0E8
:1037100090E09E838D833FC06F81788589859A85EF
:1037200020E03FEF4FE757E40E94250418164CF5C0
:103730006B857C858D859E8520E030E040E251E4FC
:103740000E941F02DC01CB01BC01CD010E94490097
:10375000DC01CB019E838D830FC088EC90E09C83BD
:103760008B838B819C810197F1F79C838B838D8167
:103770009E8101979E838D838D819E81009769F73D
:1037800014C06F81788589859A850E944900DC0183
:10379000CB019E838D838D819E819A8389838981CC
:1037A0009A810197F1F79A838983E9960FB6F89485
:1037B000DEBF0FBECDBFCF91DF910895DF93CF93D2
:1037C000CDB7DEB7E9970FB6F894DEBF0FBECDBF19
:1037D00089AF81E060E040E00E941A1181E061E081
:1037E00040E00E941A1189AD882F90E0807190709E
:1037F00095958795959587959595879595958795B1
:10380000982F80E064E0492F0E941A1189AD882F1B
:1038100090E0807290709595879595958795959590
:1038200087959595879595958795982F80E065E084
:10383000492F0E941A1189AD882F90E080749070F2
:10384000082E892F000C881F990B000C881F991FC8
:10385000982F80E066E0492F0E941A1189AD982FB9
:10386000991F9927991F80E067E0492F0E941A113C
:1038700081E062E041E00E941A1180E090E0A0E85F
:10388000BFE38DAB9EABAFABB8AF6DA97EA98FA9DF
:1038900098AD20E030E04AEF54E40E941F02DC01C2
:1038A000CB0189AB9AABABABBCAB69A97AA98BA9AD
:1038B0009CA920E030E040E85FE30E948504882373
:1038C0002CF481E090E098AB8FA73FC069A97AA95A
:1038D0008BA99CA920E03FEF4FE757E40E94250405
:1038E00018164CF56DA97EA98FA998AD20E030E09F
:1038F00040E251E40E941F02DC01CB01BC01CD017A
:103900000E944900DC01CB0198AB8FA70FC088EC67
:1039100090E09EA78DA78DA59EA50197F1F79EA784
:103920008DA78FA598A9019798AB8FA78FA598A968
:10393000009769F714C069A97AA98BA99CA90E946C
:103940004900DC01CB0198AB8FA78FA598A99CA754
:103950008BA78BA59CA50197F1F79CA78BA781E06E
:1039600062E040E00E941A1180E090E0A0E8BFE32E
:103970008FA398A7A9A7BAA76FA178A589A59AA58B
:1039800020E030E04AEF54E40E941F02DC01CB014A
:103990008BA39CA3ADA3BEA36BA17CA18DA19EA173
:1039A00020E030E040E85FE30E94850488232CF4A7
:1039B00081E090E09AA389A33FC06BA17CA18DA177
:1039C0009EA120E03FEF4FE757E40E942504181620
:1039D0004CF56FA178A589A59AA520E030E040E2DA
:1039E00051E40E941F02DC01CB01BC01CD010E9409
:1039F0004900DC01CB019AA389A30FC088EC90E0B9
:103A000098A38F8F8F8D98A10197F1F798A38F8F2F
:103A100089A19AA101979AA389A389A19AA1009744
:103A200069F714C06BA17CA18DA19EA10E944900E1
:103A3000DC01CB019AA389A389A19AA19E8F8D8FC6
:103A40008D8D9E8D0197F1F79E8F8D8F81E060E0C7
:103A500040E00E941A1181E061E040E00E941A11EA
:103A600089AD982F917080E064E0492F0E941A116F
:103A700089AD882F90E08270907095958795982FEA
:103A800080E065E0492F0E941A1189AD882F90E0EF
:103A9000847090709595879595958795982F80E07F
:103AA00066E0492F0E941A1189AD882F90E0887036
:103AB0009070959587959595879595958795982F6D
:103AC00080E067E0492F0E941A1181E062E041E046
:103AD0000E941A1180E090E0A0E8BFE3898F9A8FDE
:103AE000AB8FBC8F698D7A8D8B8D9C8D20E030E003
:103AF0004AEF54E40E941F02DC01CB018D8B9E8BA8
:103B0000AF8BB88F6D897E898F89988D20E030E0EA
:103B100040E85FE30E94850488232CF481E090E074
:103B20009C8B8B8B3FC06D897E898F89988D20E01F
:103B30003FEF4FE757E40E94250418164CF5698DB6
:103B40007A8D8B8D9C8D20E030E040E251E40E9424
:103B50001F02DC01CB01BC01CD010E944900DC0148
:103B6000CB019C8B8B8B0FC088EC90E09A8B898B60
:103B700089899A890197F1F79A8B898B8B899C891E
:103B800001979C8B8B8B8B899C89009769F714C05C
:103B90006D897E898F89988D0E944900DC01CB0157
:103BA0009C8B8B8B8B899C89988B8F878F85988931
:103BB0000197F1F7988B8F8781E062E040E00E94E7
:103BC0001A1180E090E0A0E8BFE38B879C87AD8767
:103BD000BE876B857C858D859E8520E030E04AEF31
:103BE00054E40E941F02DC01CB018F839887A987D0
:103BF000BA876F81788589859A8520E030E040E832
:103C00005FE30E94850488232CF481E090E09E838A
:103C10008D833FC06F81788589859A8520E03FEF4D
:103C20004FE757E40E94250418164CF56B857C85F8
:103C30008D859E8520E030E040E251E40E941F0225
:103C4000DC01CB01BC01CD010E944900DC01CB01AC
:103C50009E838D830FC088EC90E09C838B838B8147
:103C60009C810197F1F79C838B838D819E810197C5
:103C70009E838D838D819E81009769F714C06F812B
:103C8000788589859A850E944900DC01CB019E8355
:103C90008D838D819E819A83898389819A81019701
:103CA000F1F79A838983E9960FB6F894DEBF0FBEC9
:103CB000CDBFCF91DF910895DF93CF9300D00F92C6
:103CC000CDB7DEB79B838A8319820EC08981282FE6
:103CD00030E08A819B81FC01E20FF31F80810E940A
:103CE000601989818F5F89838981282F30E08A81DB
:103CF0009B81FC01E20FF31F8081882339F70F902D
:103D00000F900F90CF91DF910895DF93CF93CDB7B0
:103D1000DEB72E970FB6F894DEBF0FBECDBF81E0A1
:103D20000E94DE1B80E090E0A0E8B0E48B879C87D7
:103D3000AD87BE876B857C858D859E8520E030E0D4
:103D40004AEF54E40E941F02DC01CB018F83988765
:103D5000A987BA876F81788589859A8520E030E0C8
:103D600040E85FE30E94850488232CF481E090E022
:103D70009E838D833FC06F81788589859A8520E0F9
:103D80003FEF4FE757E40E94250418164CF56B856A
:103D90007C858D859E8520E030E040E251E40E94E4
:103DA0001F02DC01CB01BC01CD010E944900DC01F6
:103DB000CB019E838D830FC088EC90E09C838B8326
:103DC0008B819C810197F1F79C838B838D819E81F0
:103DD00001979E838D838D819E81009769F714C022
:103DE0006F81788589859A850E944900DC01CB0125
:103DF0009E838D838D819E819A83898389819A8117
:103E00000197F1F79A8389832E960FB6F894DEBF57
:103E10000FBECDBFCF91DF910895DF93CF93CDB784
:103E2000DEB72E970FB6F894DEBF0FBECDBF88E188
:103E30000E94DE1B80E090E0A0E8BFE38B879C87B8
:103E4000AD87BE876B857C858D859E8520E030E0C3
:103E50004AEF54E40E941F02DC01CB018F83988754
:103E6000A987BA876F81788589859A8520E030E0B7
:103E700040E85FE30E94850488232CF481E090E011
:103E80009E838D833FC06F81788589859A8520E0E8
:103E90003FEF4FE757E40E94250418164CF56B8559
:103EA0007C858D859E8520E030E040E251E40E94D3
:103EB0001F02DC01CB01BC01CD010E944900DC01E5
:103EC000CB019E838D830FC088EC90E09C838B8315
:103ED0008B819C810197F1F79C838B838D819E81DF
:103EE00001979E838D838D819E81009769F714C011
:103EF0006F81788589859A850E944900DC01CB0114
:103F00009E838D838D819E819A83898389819A8105
:103F10000197F1F79A8389832E960FB6F894DEBF46
:103F20000FBECDBFCF91DF910895DF93CF93CDB773
:103F3000DEB72E970FB6F894DEBF0FBECDBF8CE173
:103F40000E94DE1B80E090E0A0E8BFE38B879C87A7
:103F5000AD87BE876B857C858D859E8520E030E0B2
:103F60004AEF54E40E941F02DC01CB018F83988743
:103F7000A987BA876F81788589859A8520E030E0A6
:103F800040E85FE30E94850488232CF481E090E000
:103F90009E838D833FC06F81788589859A8520E0D7
:103FA0003FEF4FE757E40E94250418164CF56B8548
:103FB0007C858D859E8520E030E040E251E40E94C2
:103FC0001F02DC01CB01BC01CD010E944900DC01D4
:103FD000CB019E838D830FC088EC90E09C838B8304
:103FE0008B819C810197F1F79C838B838D819E81CE
:103FF00001979E838D838D819E81009769F714C000
:104000006F81788589859A850E944900DC01CB0102
:104010009E838D838D819E819A83898389819A81F4
:104020000197F1F79A8389832E960FB6F894DEBF35
:104030000FBECDBFCF91DF910895DF93CF9300D016
:104040000F92CDB7DEB78A836B838A81882319F4F8
:104050008B81898306C08A81813019F48B81805CD1
:104060008983898180580E94DE1B0F900F900F90EA
:10407000CF91DF910895DF93CF9300D000D000D08F
:10408000CDB7DEB79B838A836C834D832E838C816F
:10409000882F90E00896880F991F880F991F880F26
:1040A000991F0E94DE1B19820EC08981282F30E0E3
:1040B0008A819B81FC01E20FF31F80810E946019BD
:1040C00089818F5F89838981883078F38D816E81C2
:1040D0000E941D208C810E94601926960FB6F894CC
:1040E000DEBF0FBECDBFCF91DF910895DF93CF9399
:1040F00000D000D0CDB7DEB789836A834B832C8391
:10410000898162E04A810E94320F8B8162E04C819A
:104110000E94320F0F900F900F900F90CF91DF9170
:104120000895DF93CF9300D000D0CDB7DEB7898359
:104130006A834B832C8389816A8140E00E941A1133
:104140008B816C8140E00E941A110F900F900F90AC
:104150000F90CF91DF910895DF93CF9300D000D0DF
:10416000CDB7DEB789836A834B832C8389816A81CB
:1041700041E00E941A118B816C8140E00E941A116B
:104180000F900F900F900F90CF91DF910895DF93D4
:10419000CF9300D000D0CDB7DEB789836A834B833D
:1041A0002C8389816A8140E00E941A118B816C8185
:1041B00041E00E941A110F900F900F900F90CF9135
:1041C000DF910895DF93CF930F92CDB7DEB7898348
:1041D00083E060E00E9456148981982F915083E01B
:1041E000692F41E00E941A110F90CF91DF9108953D
:1041F000DF93CF9300D00F92CDB7DEB789830E94B3
:10420000851E80E690E00E945C1E81E060E00E94D6
:104210001D208981282F30E03B832A838A819B815E
:1042200082309105D9F02A813B812330310534F465
:104230008A819B818130910561F01FC02A813B8179
:104240002330310581F08A819B818430910581F092
:1042500014C08EE690E00E945C1E13C086E790E0DA
:104260000E945C1E0EC08EE790E00E945C1E09C09A
:1042700086E890E00E945C1E04C08EE890E00E94F8
:104280005C1E0F900F900F90CF91DF910895DF93F8
:10429000CF9300D000D0CDB7DEB789836A830E9468
:1042A000851E8A81882329F086E990E09C838B8390
:1042B00004C08FE990E09C838B838B819C810E945A
:1042C0005C1E81E060E00E941D208AEA90E00E946E
:1042D0005C1E8981805D0E9460190F900F900F9085
:1042E0000F90CF91DF910895DF93CF9300D0CDB79A
:1042F000DEB719820DC089810E946D15882329F4CB
:104300008981982F9F5F9A8307C089818F5F8983F6
:104310008981853080F31A828A810F900F90CF9126
:10432000DF910895DF93CF93CDB7DEB76F970FB6C8
:10433000F894DEBF0FBECDBF0E94571583E062E048
:104340000E947F1382E065E042E026E00E94762032
:104350000E94151680E590E00E940D0F8F8F8F8DC3
:10436000882319F08F8D863038F081E08F8F80E5BB
:1043700090E06F8D0E94E00E8F8D0E94E2208F8D65
:104380000E94F8200E9474218D8F8D8D8823D1F397
:104390009D8D8F8D9817B1F38D8D8E8F12C19E8D4F
:1043A0008F8D891708F080C082E065E042E026E04A
:1043B0000E94AC208E8D61E00E94472180E090E059
:1043C000AAE7B4E4898F9A8FAB8FBC8F698D7A8D01
:1043D0008B8D9C8D20E030E04AEF54E40E941F0258
:1043E000DC01CB018D8B9E8BAF8BB88F6D897E8965
:1043F0008F89988D20E030E040E85FE30E948504DB
:1044000088232CF481E090E09C8B8B8B3FC06D89DE
:104410007E898F89988D20E03FEF4FE757E40E9417
:10442000250418164CF5698D7A8D8B8D9C8D20E0B6
:1044300030E040E251E40E941F02DC01CB01BC01EC
:10444000CD010E944900DC01CB019C8B8B8B0FC0FE
:1044500088EC90E09A8B898B89899A890197F1F78A
:104460009A8B898B8B899C8901979C8B8B8B8B89F1
:104470009C89009769F714C06D897E898F89988D12
:104480000E944900DC01CB019C8B8B8B8B899C8922
:10449000988B8F878F8598890197F1F7988B8F87F5
:1044A0008F8D8F5F8F8F7FC082E065E042E026E0D6
:1044B0000E94C7208E8D60E00E94472180E090E03E
:1044C000AAE7B4E48B879C87AD87BE876B857C8524
:1044D0008D859E8520E030E04AEF54E40E941F0263
:1044E000DC01CB018F839887A987BA876F81788594
:1044F00089859A8520E030E040E85FE30E948504EA
:1045000088232CF481E090E09E838D833FC06F81EF
:10451000788589859A8520E03FEF4FE757E40E9430
:10452000250418164CF56B857C858D859E8520E0CD
:1045300030E040E251E40E941F02DC01CB01BC01EB
:10454000CD010E944900DC01CB019E838D830FC009
:1045500088EC90E09C838B838B819C810197F1F7A1
:104560009C838B838D819E8101979E838D838D811A
:104570009E81009769F714C06F81788589859A8537
:104580000E944900DC01CB019E838D838D819E8139
:104590009A83898389819A810197F1F79A83898324
:1045A0008F8D81508F8F82E065E042E026E00E948F
:1045B000912080E590E06F8D0E94E00E8F8D0E942B
:1045C000E2209F8D8E8D981709F0E9CE82E065E09C
:1045D00042E026E00E9491208F8D0E94E2208F8D84
:1045E0000E94F820CFCE2F923F924F925F926F920F
:1045F0007F928F929F92AF92BF92CF92DF92EF9273
:10460000FF920F931F93CF93DF93CDB7DEB7CA1BF3
:10461000DB0B0FB6F894DEBF0FBECDBF09942A881E
:10462000398848885F846E847D848C849B84AA84C6
:10463000B984C884DF80EE80FD800C811B81AA8153
:10464000B981CE0FD11D0FB6F894DEBF0FBECDBF1E
:08465000ED010895F894FFCF7D
:1046580043555252454E5420464C4F4F5200464CFB
:104668004F4F52203100464C4F4F52203200464C9B
:104678004F4F52203300464C4F4F52203400464C87
:104688004F4F52203500474F494E4720555000475D
:104698004F494E4720444F574E00544152474554C6
:1046A80020464C4F4F522000000000000000000040
:1046B80000010202030303030404040404040404C1
:1046C8000505050505050505050505050505050592
:1046D8000606060606060606060606060606060672
:1046E8000606060606060606060606060606060662
:1046F8000707070707070707070707070707070742
:104708000707070707070707070707070707070731
:104718000707070707070707070707070707070721
:104728000707070707070707070707070707070711
:1047380008080808080808080808080808080808F1
:1047480008080808080808080808080808080808E1
:1047580008080808080808080808080808080808D1
:1047680008080808080808080808080808080808C1
:1047780008080808080808080808080808080808B1
:1047880008080808080808080808080808080808A1
:104798000808080808080808080808080808080891
:1047A8000808080808080808080808080808080881
:00000001FF
