:100000000C942A000C9447000C9447000C94470071
:100010000C9447000C94010E0C9447000C9447007C
:100020000C9447000C9447000C9447000C947A0AF7
:100030000C9447000C9447000C9447000C94470024
:100040000C9447000C9447000C9447000C94470014
:100050000C94470011241FBECFE5D8E0DEBFCDBF12
:1000600011E0A0E6B0E0E8ECF1E302C005900D92EB
:10007000A238B107D9F711E0A2E8B1E001C01D92A2
:10008000A63AB107E1F70E948C180C94E2180C9480
:100090000000EF92FF920F931F937B018C0120E0F1
:1000A00030E040E05FE40E94250488238CF0C80122
:1000B000B70120E030E040E05FE40E94C1010E940F
:1000C00085049B01AC01205030404040504806C0A0
:1000D000C801B7010E9485049B01AC01B901CA01A6
:1000E0001F910F91FF90EF900895A0E0B0E0EBE733
:1000F000F0E00C94AB18DC012B01FA019C919230DA
:1001000008F439C1EB018881823008F433C194309E
:1001100069F4843009F02FC111969C91119789815F
:10012000981709F428C1A0E6B0E025C1843009F48D
:1001300021C18230A9F4923009F01DC19A01AD01AC
:1001400088E0EA010990AE01E90109929E0181501F
:10015000C1F7E201898111969C918923818308C1AD
:10016000923009F407C112962D903C901397EB0141
:100170008A819B811496AD90BD90CD90DC901797AD
:10018000EC80FD800E811F819101281B390BB90184
:1001900037FF04C066277727621B730B6032710537
:1001A0000CF061C0121613066CF537014801062EDB
:1001B00004C096948794779467940A94D2F721E0C8
:1001C00030E040E050E004C0220F331F441F551FB1
:1001D0006A95D2F721503040404050402E213F21B7
:1001E00040235123211531054105510521F021E01E
:1001F00030E040E050E079018A01E628F72808293C
:1002000019293CC0232BD1F1260E371E350146019A
:10021000062E04C096948794779467940A94D2F734
:1002200021E030E040E050E004C0220F331F441FC3
:10023000551F6A95D2F721503040404050402A2146
:100240003B214C215D21211531054105510521F04E
:1002500021E030E040E050E059016A01A628B728CB
:10026000C828D9280BC0821593052CF01C01AA249C
:10027000BB24650103C0EE24FF24870111969C91E5
:10028000D20111968C91981709F445C0992339F041
:10029000A80197012A193B094C095D0906C0A6016E
:1002A00095012E193F09400B510B57FD08C01182D3
:1002B0003382228224833583468357831DC081E0A5
:1002C00081833382228288279927DC01821B930B4A
:1002D000A40BB50B84839583A683B7830DC0220F2F
:1002E000331F441F551F24833583468357838281E0
:1002F000938101979383828324813581468157813D
:10030000DA01C9010197A109B1098F5F9F4FAF4F72
:10031000BF4328F30BC0918333822282EA0CFB1C7B
:100320000C1D1D1DE482F5820683178383E0808304
:10033000248135814681578157FF1AC0C901AA27F8
:1003400097FDA095BA2F81709070A070B0705695EF
:10035000479537952795822B932BA42BB52B848318
:100360009583A683B7838281938101969383828349
:10037000DF0101C0D201CD01CDB7DEB7E2E10C94BF
:10038000C718A0E2B0E0E7ECF1E00C94B71869837D
:100390007A838B839C832D833E834F835887E9E048
:1003A000EE2EF12CEC0EFD1ECE010196B7010E943F
:1003B00076068E010F5E1F4FCE010596B8010E9492
:1003C00076068A8991E089278A8BC701B801AE0138
:1003D000475E5F4F0E9475000E94A105A096E6E06F
:1003E0000C94D318A0E2B0E0E8EFF1E00C94B71859
:1003F00069837A838B839C832D833E834F835887C5
:10040000F9E0EF2EF12CEC0EFD1ECE010196B701A6
:100410000E9476068E010F5E1F4FCE010596B80131
:100420000E947606C701B801AE01475E5F4F0E9489
:1004300075000E94A105A096E6E00C94D318A0E2F6
:10044000B0E0E5E2F2E00C94AB1869837A838B8329
:100450009C832D833E834F835887CE010196BE0136
:10046000675F7F4F0E947606CE010596BE016F5EE4
:100470007F4F0E9476069985923088F08989823074
:10048000C8F0943019F4823051F404C0843029F457
:10049000923081F480E690E0C6C0923049F420E0CA
:1004A0009A858A89981321E02A87CE010996BBC0D4
:1004B000823049F420E09A858A89981321E02A8BBA
:1004C000CE014196B0C02D843E844F8458886D88FB
:1004D0007E888F88988CEE24FF248701AA24BB2471
:1004E000650140E050E060E070E0E0E0F0E0C10174
:1004F00081709070892BE9F0E60CF71C081D191D1E
:100500009A01AB012A0D3B1D4C1D5D1D80E090E062
:10051000A0E0B0E0E614F7040805190520F481E036
:1005200090E0A0E0B0E0BA01A901480F591F6A1F8E
:100530007B1FAA0CBB1CCC1CDD1C97FE08C081E0F5
:1005400090E0A0E0B0E0A82AB92ACA2ADB2A3196B6
:10055000E032F10549F0660C771C881C991C569412
:10056000479437942794C3CFFA85EA892B893C892D
:100570008B859C85280F391F2E5F3F4F17C0CA01FE
:1005800081709070892B61F016950795F794E79428
:1005900080E090E0A0E0B0E8E82AF92A0A2B1B2BC3
:1005A00076956795579547952F5F3F4F77FDE7CF36
:1005B0000CC0440F551F661F771F17FD4160EE0CDE
:1005C000FF1C001F111F21503040403090E05907A0
:1005D00090E0690790E4790760F32B8F3C8FDB0193
:1005E000CA018F779070A070B07080349105A1051A
:1005F000B10561F447FD0AC0E114F10401051105DC
:1006000029F0405C5F4F6F4F7F4F40781A8EFE1786
:1006100011F081E08A8F4D8F5E8F6F8F78A383E01A
:10062000898FCE0149960E94A105A096E2E10C9423
:10063000C718A8E1B0E0EFE1F3E00C94B3186983C8
:100640007A838B839C832D833E834F835887B9E0C5
:10065000EB2EF12CEC0EFD1ECE010196B7010E948F
:1006600076068E010F5E1F4FCE010596B8010E94DF
:1006700076062985223008F47EC03989323010F49C
:10068000B8017CC08A859A8989278A87243011F02D
:10069000223031F4231709F06EC060E670E06EC0BE
:1006A000343039F41D861E861F86188A1C861B86E8
:1006B00004C0323021F484E08987B7015FC02B8504
:1006C0003C858B899C89281B390B3C872B87ED84C3
:1006D000FE840F851889AD88BE88CF88D88CEA142F
:1006E000FB040C051D0540F4EE0CFF1C001F111F40
:1006F000215030403C872B8720E030E040E050E044
:1007000080E090E0A0E0B0E460E070E0EA14FB0478
:100710000C051D0540F0282B392B4A2B5B2BEA18C2
:10072000FB080C091D09B695A79597958795EE0CC2
:10073000FF1C001F111F6F5F7F4F6F31710531F775
:10074000DA01C9018F779070A070B0708034910584
:10075000A105B10561F427FD0AC0E114F10401050A
:10076000110529F0205C3F4F4F4F5F4F20782D87B8
:100770003E874F87588BBE01675F7F4FCB010E943A
:10078000A1056896EAE00C94CF18A8E1B0E0EBEC84
:10079000F3E00C94B71869837A838B839C832D8351
:1007A0003E834F83588789E0E82EF12CEC0EFD1E26
:1007B000CE010196B7010E9476068E010F5E1F4F93
:1007C000CE010596B8010E9476068985823040F0F8
:1007D0008989823028F0C701B8010E94EE0601C065
:1007E00081E06896E6E00C94D318A8E1B0E0EBEF66
:1007F000F3E00C94B71869837A838B839C832D83F1
:100800003E834F83588789E0E82EF12CEC0EFD1EC5
:10081000CE010196B7010E9476068E010F5E1F4F32
:10082000CE010596B8010E9476068985823040F097
:100830008989823028F0C701B8010E94EE0601C004
:1008400081E06896E6E00C94D318A8E1B0E0EBE212
:10085000F4E00C94B71869837A838B839C832D838F
:100860003E834F83588789E0E82EF12CEC0EFD1E65
:10087000CE010196B7010E9476068E010F5E1F4FD2
:10088000CE010596B8010E9476068985823040F037
:100890008989823028F0C701B8010E94EE0601C0A4
:1008A0008FEF6896E6E00C94D318A8E1B0E0EBE592
:1008B000F4E00C94B71869837A838B839C832D832F
:1008C0003E834F83588789E0E82EF12CEC0EFD1E05
:1008D000CE010196B7010E9476068E010F5E1F4F72
:1008E000CE010596B8010E9476068985823040F0D7
:1008F0008989823028F0C701B8010E94EE0601C044
:1009000081E06896E6E00C94D318ACE0B0E0EBE848
:10091000F4E00C94BB1869837A838B839C83CE01AB
:100920000196BE016B5F7F4F0E9476068D818230FB
:1009300061F1823050F1843021F48E81882351F1AD
:100940002EC02F81388537FD20C06E812F313105B3
:100950001CF06623F9F023C08EE190E0821B930B1C
:1009600029853A854B855C8504C056954795379512
:1009700027958A95D2F76623B1F05095409530952A
:1009800021953F4F4F4F5F4F0EC020E030E040E0D9
:1009900050E009C02FEF3FEF4FEF5FE704C020E0CA
:1009A00030E040E050E8B901CA012C96E2E00C9436
:1009B000D718A8E0B0E0EFEDF4E00C94B3187B0199
:1009C0008C01611571058105910519F482E0898317
:1009D00060C083E089838EE1C82ED12CDC82CB827B
:1009E000ED82FE820F831887C801B7010E9452056D
:1009F000FC013197F7FF3BC0222733272E1B3F0B0B
:100A000057016801022E04C0D694C794B794A794E6
:100A10000A94D2F740E050E060E070E081E090E0BE
:100A2000A0E0B0E004C0880F991FAA1FBB1F2A9541
:100A3000D2F70197A109B1098E219F21A023B123EB
:100A40000097A105B10521F041E050E060E070E0C1
:100A50004A295B296C297D294D835E836F837887C2
:100A60008EE190E08E1B9F0B9C838B8312C030978E
:100A700081F00E2E04C0EE0CFF1C001F111F0A9403
:100A8000D2F7ED82FE820F831887CE1ADF0ADC824E
:100A9000CB821A82CE0101960E94A1052896EAE037
:100AA0000C94CF18EF92FF920F931F937B018C0150
:100AB00080E0E81680E0F80681E0080780E018078B
:100AC00088F48FEFE816F1040105110531F028F0E4
:100AD00088E090E0A0E0B0E017C080E090E0A0E007
:100AE000B0E012C080E0E81680E0F80680E0080779
:100AF00081E0180728F088E190E0A0E0B0E004C0B1
:100B000080E190E0A0E0B0E020E230E040E050E0A2
:100B1000281B390B4A0B5B0B04C016950795F794FD
:100B2000E7948A95D2F7F701E859FF4F8081281B97
:100B3000310941095109C9011F910F91FF90EF90AF
:100B40000895DF92EF92FF920F931F93FC01E480D0
:100B5000F58006811781D1808081823048F480E061
:100B600090E0A0E1B0E0E82AF92A0A2B1B2BA5C0EF
:100B7000843009F49FC0823021F4EE24FF248701E1
:100B800005C0E114F1040105110519F4E0E0F0E0FD
:100B900096C0628173819FEF623879070CF05BC069
:100BA00022E83FEF261B370B2A3131052CF020E0DD
:100BB00030E040E050E02AC0B801A701022E04C096
:100BC00076956795579547950A94D2F781E090E01E
:100BD000A0E0B0E004C0880F991FAA1FBB1F2A9590
:100BE000D2F70197A109B1098E219F21A023B1233A
:100BF0000097A105B10521F081E090E0A0E0B0E010
:100C00009A01AB01282B392B4A2B5B2BDA01C90146
:100C10008F779070A070B07080349105A105B105F8
:100C200039F427FF09C0205C3F4F4F4F5F4F04C08E
:100C3000215C3F4F4F4F5F4FE0E0F0E02030A0E0FD
:100C40003A07A0E04A07A0E45A0710F0E1E0F0E01C
:100C500079018A0127C06038710564F5FB01E1580C
:100C6000FF4FD801C7018F779070A070B0708034AB
:100C70009105A105B10539F4E7FE0DC080E490E0CF
:100C8000A0E0B0E004C08FE390E0A0E0B0E0E80EA8
:100C9000F91E0A1F1B1F17FF05C016950795F7942D
:100CA000E794319687E016950795F794E7948A952F
:100CB000D1F705C0EE24FF248701EFEFF0E06E2F9F
:100CC000679566276795902F9F77D794DD24D794F3
:100CD0008E2F8695492F462B582F5D29B701CA01C3
:100CE0001F910F91FF90EF90DF900895FC01DB01C1
:100CF000408151812281622F6F7770E0221F22276D
:100D0000221F9381892F880F822B282F30E0991F73
:100D10009927991F11969C93119721153105A9F5D3
:100D2000411551056105710511F482E037C082E873
:100D30009FEF13969C938E9312979A01AB0167E0F5
:100D4000220F331F441F551F6A95D1F783E08C9300
:100D50000DC0220F331F441F551F12968D919C9179
:100D60001397019713969C938E931297203080E0EF
:100D7000380780E0480780E4580758F314962D930D
:100D80003D934D935C93179708952F3F310579F468
:100D9000411551056105710519F484E08C9308959E
:100DA00064FF03C081E08C9312C01C9210C02F57C7
:100DB000304013963C932E93129783E08C9387E0F8
:100DC000440F551F661F771F8A95D1F770641496DC
:100DD0004D935D936D937C93179708951F93DC015A
:100DE000FB019C91923008F447C08081823008F466
:100DF00043C0943051F411961C91843099F581814F
:100E0000682F70E0611B71093FC0843021F092307F
:100E100031F48230B9F18181882389F12DC0119696
:100E20001C9111978230F1F081811817D9F4129634
:100E30002D913C911397828193818217930794F0AF
:100E400028173907BCF014968D919D910D90BC9197
:100E5000A02D2481358146815781281739074A07FB
:100E60005B0718F4112341F00AC082179307A40707
:100E7000B50740F4112319F061E070E005C06FEF91
:100E80007FEF02C060E070E0CB011F910895DF9317
:100E9000CF9300D000D0CDB7DEB78A8319828A8184
:100EA000282F30E03C832B838B819C8181309105FE
:100EB000A1F12B813C81223031052CF48B819C8166
:100EC000009771F0AAC02B813C812230310509F4D2
:100ED0004AC08B819C818330910509F478C09DC004
:100EE000A3E5B0E0E3E5F0E080818F7B8C93A3E5A0
:100EF000B0E0E3E5F0E08081877F8C93AFE5B0E080
:100F0000EFE5F0E0808180688C93A9E5B0E0E9E549
:100F1000F0E0808181608C9382C0A3E5B0E0E3E5DE
:100F2000F0E0808180648C93A3E5B0E0E3E5F0E03D
:100F30008081877F8C9381E062E043E00E945E0EB7
:100F4000882311F081E08983A3E5B0E0E3E5F0E0D8
:100F500080818F7E8C93A3E5B0E0E3E5F0E08081B3
:100F600080628C935CC0A3E5B0E0E3E5F0E08081B3
:100F70008F7B8C93A3E5B0E0E3E5F0E080818860AF
:100F80008C9381E062E043E00E945E0E882311F0C2
:100F900081E08983A3E5B0E0E3E5F0E080818F7E26
:100FA0008C93A3E5B0E0E3E5F0E0808180628C9370
:100FB000AFE5B0E0EFE5F0E0808180688C93A9E5D3
:100FC000B0E0E9E5F0E0808182608C9328C0A3E581
:100FD000B0E0E3E5F0E0808180648C93A3E5B0E0CD
:100FE000E3E5F0E0808188608C9381E062E043E09B
:100FF0000E945E0E882311F081E08983A3E5B0E0B2
:10100000E3E5F0E080818F7E8C93A3E5B0E0E3E53B
:10101000F0E0808180628C9302C082E089838981C4
:101020000F900F900F900F90CF91DF910895DF9365
:10103000CF9300D000D00F92CDB7DEB79B838A83C9
:1010400019828A819B8190938301809382018A8196
:101050009B819D838C838C819D818330910509F4D4
:10106000CCC08C819D818430910568F48C819D81F8
:101070008130910509F43DC08C819D8182309105BC
:1010800008F0A5C020C08C819D818034910509F4B1
:101090005CC08C819D818134910530F48C819D816F
:1010A00088309105E1F1BFC08C819D8121E08030C5
:1010B000920709F460C08C819D8124E08030920702
:1010C00009F46FC0B0C0A3E5B0E0E3E5F0E08081D3
:1010D0008E7F8C93A3E5B0E0E3E5F0E080818D7F27
:1010E0008C93A3E5B0E0E3E5F0E080818B7F8C9307
:1010F0009CC0A3E5B0E0E3E5F0E0808181608C93E3
:10110000A3E5B0E0E3E5F0E080818D7F8C93A3E57B
:10111000B0E0E3E5F0E080818B7F8C9386C0A3E5AF
:10112000B0E0E3E5F0E080818E7F8C93A3E5B0E052
:10113000E3E5F0E0808182608C93A3E5B0E0E3E535
:10114000F0E080818B7F8C9370C0A3E5B0E0E3E595
:10115000F0E0808181608C93A3E5B0E0E3E5F0E00E
:10116000808182608C93A3E5B0E0E3E5F0E08081CC
:101170008B7F8C935AC0A3E5B0E0E3E5F0E080817B
:101180008E7F8C93A3E5B0E0E3E5F0E080818D7F76
:101190008C93A3E5B0E0E3E5F0E0808184608C937C
:1011A00044C0A3E5B0E0E3E5F0E0808181608C938A
:1011B000A3E5B0E0E3E5F0E080818D7F8C93A3E5CB
:1011C000B0E0E3E5F0E0808184608C932EC0A3E57D
:1011D000B0E0E3E5F0E080818E7F8C93A3E5B0E0A2
:1011E000E3E5F0E0808182608C93A3E5B0E0E3E585
:1011F000F0E0808184608C9318C0A3E5B0E0E3E563
:10120000F0E0808181608C93A3E5B0E0E3E5F0E05D
:10121000808182608C93A3E5B0E0E3E5F0E080811B
:1012200084608C9302C083E0898389810F900F9042
:101230000F900F900F90CF91DF910895EF92FF9252
:101240000F931F93DF93CF93CDB7DEB763970FB69E
:10125000F894DEBF0FBECDBF6E877F87888B998BDA
:101260005B8B4A8B1D868E859F85A889B9890097DF
:10127000A105B10519F481E08D870CC1809182012F
:1012800090918301880F991F82959295907F98275E
:10129000807F9827CC01A0E0B0E089879A87AB8750
:1012A000BC876E857F85888999890E94D9047B01D6
:1012B0008C0169857A858B859C850E94D9049B0168
:1012C000AC01C801B7010E941903DC01CB018D8379
:1012D0009E83AF83B8878A899B89009719F484E03D
:1012E0008D87D8C08A899B899093950180939401BA
:1012F0006D817E818F81988520E030E040E85FE35A
:101300000E94550488238CF581E090E0A0E0B0E0D5
:101310008093880190938901A0938A01B0938B01F7
:101320006D817E818F81988520E030E040E853EC2C
:101330000E941F02DC01CB01BC01CD0120E030E0A6
:1013400040E853E40E94F201DC01CB01BC01CD0175
:101350000E944900DC01CB0189839A83AB83BC8363
:10136000E2E5F0E08981808395C06D817E818F8187
:10137000988520E030E040E85FE30E94C5038823C1
:1013800069F481E090E0A0E0B0E080938801909360
:101390008901A0938A01B0938B017CC06D817E810D
:1013A0008F8198850E944900DC01CB0180938801E0
:1013B00090938901A0938A01B0938B016D817E8106
:1013C0008F8198850E944900DC01CB01BC01CD01D1
:1013D0000E94D9049B01AC016D817E818F8198852B
:1013E0000E94C101DC01CB01BC01CD0120E030E055
:1013F00040E050E00E94F503882309F44BC080913F
:10140000880190918901A0918A01B0918B01019688
:10141000A11DB11D8093880190938901A0938A0139
:10142000B0938B016D817E818F8198850E944900E8
:10143000DC01CB01BC01CD010E94D9049B01AC01B0
:101440006D817E818F8198850E94C101DC01CB0175
:10145000BC01CD0120E030E040E853EC0E941F02C7
:10146000DC01CB01BC01CD0120E030E040E853E4D9
:101470000E94F201DC01CB01BC01CD010E944900B8
:10148000DC01CB0189839A83AB83BC83E2E5F0E086
:10149000898180838D8563960FB6F894DEBF0FBE79
:1014A000CDBFCF91DF911F910F91FF90EF900895E5
:1014B000DF93CF9300D0CDB7DEB78A831982E2E500
:1014C000F0E08A81808389810F900F90CF91DF9126
:1014D0000895DF93CF9300D0CDB7DEB78A8319820A
:1014E000ECE5F0E08A81808389810F900F90CF91A5
:1014F000DF9108951F920F920FB60F9211242F9330
:101500003F934F935F936F937F938F939F93AF938B
:10151000BF93EF93FF93DF93CF93CDB7DEB7809167
:101520009A0190919B01A0919C01B0919D0101961F
:10153000A11DB11D80939A0190939B01A0939C01E2
:10154000B0939D01209188013091890140918A01D9
:1015500050918B0180919A0190919B01A0919C01E7
:10156000B0919D01281739074A075B0769F4E0919C
:101570009401F0919501099510929A0110929B01A6
:1015800010929C0110929D01CF91DF91FF91EF91FC
:10159000BF91AF919F918F917F916F915F914F918B
:1015A0003F912F910F900FBE0F901F901895DF93D2
:1015B000CF9300D000D0CDB7DEB78A8319828A815D
:1015C000282F30E03C832B838B819C8181309105D7
:1015D000A1F12B813C81223031052CF48B819C813F
:1015E000009771F0AAC02B813C812230310509F4AB
:1015F0004AC08B819C818330910509F478C09DC0DD
:10160000A5E4B0E0E5E4F0E080818F7B8C93A5E475
:10161000B0E0E5E4F0E08081877F8C93AFE5B0E057
:10162000EFE5F0E0808180688C93A9E5B0E0E9E522
:10163000F0E0808180648C9382C0A5E4B0E0E5E4B2
:10164000F0E0808180648C93A5E4B0E0E5E4F0E014
:101650008081877F8C9383E062E047E00E945E0E8A
:10166000882311F081E08983A5E4B0E0E5E4F0E0AF
:1016700080818F7E8C93A5E4B0E0E5E4F0E080818A
:1016800080628C935CC0A5E4B0E0E5E4F0E080818A
:101690008F7B8C93A5E4B0E0E5E4F0E08081886086
:1016A0008C9383E062E047E00E945E0E882311F095
:1016B00081E08983A5E4B0E0E5E4F0E080818F7EFD
:1016C0008C93A5E4B0E0E5E4F0E0808180628C9347
:1016D000AFE5B0E0EFE5F0E0808180688C93A9E5AC
:1016E000B0E0E9E5F0E0808180648C9328C0A5E457
:1016F000B0E0E5E4F0E0808180648C93A5E4B0E0A4
:10170000E5E4F0E0808188608C9383E062E047E06C
:101710000E945E0E882311F081E08983A5E4B0E089
:10172000E5E4F0E080818F7E8C93A5E4B0E0E5E411
:10173000F0E0808180628C9302C082E0898389819D
:101740000F900F900F900F90CF91DF910895DF933E
:10175000CF9300D000D00F92CDB7DEB79B838A83A2
:1017600019828A819B8190938701809386018A8167
:101770009B819D838C838C819D818032910509F4AE
:101780007AC08C819D818132910590F48C819D81FC
:101790008130910509F443C08C819D818130910590
:1017A00040F18C819D818830910509F44EC0D1C0F3
:1017B0008C819D818038910509F489C08C819D813F
:1017C0008138910538F48C819D818034910509F42C
:1017D00068C0BFC08C819D8121E08030920709F4F0
:1017E0008CC08C819D8124E08030920709F49BC0DD
:1017F000B0C0A5E4B0E0E5E4F0E080818E7F8C939A
:10180000A5E4B0E0E5E4F0E080818D7F8C93A5E471
:10181000B0E0E5E4F0E080818B7F8C939CC0A5E490
:10182000B0E0E5E4F0E0808181608C93A5E4B0E075
:10183000E5E4F0E080818D7F8C93A5E4B0E0E5E401
:10184000F0E080818B7F8C9386C0A5E4B0E0E5E476
:10185000F0E080818E7F8C93A5E4B0E0E5E4F0E0D9
:10186000808182608C93A5E4B0E0E5E4F0E08081C3
:101870008B7F8C9370C0A5E4B0E0E5E4F0E080815C
:1018800081608C93A5E4B0E0E5E4F0E080818260C3
:101890008C93A5E4B0E0E5E4F0E080818B7F8C934D
:1018A0005AC0A5E4B0E0E5E4F0E080818E7F8C933F
:1018B000A5E4B0E0E5E4F0E080818D7F8C93A5E4C1
:1018C000B0E0E5E4F0E0808184608C9344C0A5E45E
:1018D000B0E0E5E4F0E0808181608C93A5E4B0E0C5
:1018E000E5E4F0E080818D7F8C93A5E4B0E0E5E451
:1018F000F0E0808184608C932EC0A5E4B0E0E5E444
:10190000F0E080818E7F8C93A5E4B0E0E5E4F0E028
:10191000808182608C93A5E4B0E0E5E4F0E0808112
:1019200084608C9318C0A5E4B0E0E5E4F0E0808129
:1019300081608C93A5E4B0E0E5E4F0E08081826012
:101940008C93A5E4B0E0E5E4F0E0808184608C93C2
:1019500002C083E0898389810F900F900F900F90D0
:101960000F90CF91DF910895EF92FF920F931F9305
:10197000DF93CF93CDB7DEB764970FB6F894DEBF91
:101980000FBECDBF6E877F87888B998B5B8B4A8B11
:101990001D868E859F85A889B9890097A105B10507
:1019A00019F481E08C8B0EC18091860190918701A2
:1019B000880F991F82959295907F9827807F98270E
:1019C000CC01A0E0B0E089879A87AB87BC876E85A1
:1019D0007F85888999890E94D9047B018C0169855A
:1019E0007A858B859C850E94D9049B01AC01C80136
:1019F000B7010E941903DC01CB018D839E83AF8365
:101A0000B8878A899B89009719F484E08D87D8C0AC
:101A10008A899B8990939901809398016D817E8139
:101A20008F81988520E030E040E85FE30E94550414
:101A300088238CF581E090E0A0E0B0E080939001F5
:101A400090939101A0939201B09393016D817E8157
:101A50008F81988520E030E040E853EC0E941F021F
:101A6000DC01CB01BC01CD0120E030E040E853E4D3
:101A70000E94F201DC01CB01BC01CD010E944900B2
:101A8000DC01CB0189839A83AB83BC83E4E4F0E07F
:101A90008981808395C06D817E818F81988520E0CA
:101AA00030E040E85FE30E94C503882369F481E0E9
:101AB00090E0A0E0B0E08093900190939101A0931A
:101AC0009201B09393017CC06D817E818F81988556
:101AD0000E944900DC01CB01809390019093910119
:101AE000A0939201B09393016D817E818F8198853F
:101AF0000E944900DC01CB01BC01CD010E94D90448
:101B00009B01AC016D817E818F8198850E94C1010E
:101B1000DC01CB01BC01CD0120E030E040E050E031
:101B20000E94F503882309F44BC0809190019091A5
:101B30009101A0919201B09193010196A11DB11D57
:101B40008093900190939101A0939201B09393019F
:101B50006D817E818F8198850E944900DC01CB01D7
:101B6000BC01CD010E94D9049B01AC016D817E8135
:101B70008F8198850E94C101DC01CB01BC01CD01A0
:101B800020E030E040E853EC0E941F02DC01CB0172
:101B9000BC01CD0120E030E040E853E40E94F201B6
:101BA000DC01CB01BC01CD010E944900DC01CB016D
:101BB00089839A83AB83BC83E4E4F0E089818083EA
:101BC0008D858C8B8C8964960FB6F894DEBF0FBE22
:101BD000CDBFCF91DF911F910F91FF90EF900895AE
:101BE000DF93CF9300D0CDB7DEB78A831982E3E4C9
:101BF000F0E08A81808389810F900F90CF91DF91EF
:101C000008951F920F920FB60F9211242F933F93B6
:101C10004F935F936F937F938F939F93AF93BF93F4
:101C2000EF93FF93DF93CF93CDB7DEB780919E0103
:101C300090919F01A091A001B091A1010196A11DD9
:101C4000B11D80939E0190939F01A093A001B0933A
:101C5000A101209190013091910140919201509108
:101C6000930180919E0190919F01A091A001B0915C
:101C7000A101281739074A075B0769F4E091980129
:101C8000F0919901099510929E0110929F01109276
:101C9000A0011092A101CF91DF91FF91EF91BF912F
:101CA000AF919F918F917F916F915F914F913F91F4
:101CB0002F910F900FBE0F901F901895DF93CF9329
:101CC00000D000D000D0CDB7DEB78A836B834C83C1
:101CD00019828C81883018F082E08983CDC18A8195
:101CE000282F30E03E832D838D819E8181309105A8
:101CF00009F473C02D813E81223031052CF48D8191
:101D00009E81009771F0B6C12D813E812230310550
:101D100009F4D2C08D819E818330910509F43BC1C5
:101D2000A9C18B818823A9F4AAE3B0E0EAE3F0E03B
:101D30008081482F8C81282F30E081E090E0022EB6
:101D400002C0880F991F0A94E2F7809584238C9330
:101D500093C18B81813039F5AAE3B0E0EAE3F0E08A
:101D60008081482F8C81282F30E081E090E002C0F4
:101D7000880F991F2A95E2F7809584238C93ABE313
:101D8000B0E0EBE3F0E08081482F8C81282F30E039
:101D900081E090E0022E02C0880F991F0A94E2F7BA
:101DA000842B8C9369C18B818230A1F4AAE3B0E0CB
:101DB000EAE3F0E08081482F8C81282F30E081E039
:101DC00090E0022E02C0880F991F0A94E2F7842B3C
:101DD0008C9352C181E089834FC18B81882341F567
:101DE000A7E3B0E0E7E3F0E08081482F8C81282F63
:101DF00030E081E090E002C0880F991F2A95E2F759
:101E0000809584238C93A8E3B0E0E8E3F0E0808140
:101E1000482F8C81282F30E081E090E0022E02C014
:101E2000880F991F0A94E2F7809584238C9324C12C
:101E30008B81813039F5A7E3B0E0E7E3F0E0808102
:101E4000482F8C81282F30E081E090E002C0880F7D
:101E5000991F2A95E2F7809584238C93A8E3B0E03C
:101E6000E8E3F0E08081482F8C81282F30E081E08A
:101E700090E0022E02C0880F991F0A94E2F7842B8B
:101E80008C93FAC08B818230A1F4A7E3B0E0E7E342
:101E9000F0E08081482F8C81282F30E081E090E0B5
:101EA000022E02C0880F991F0A94E2F7842B8C93AC
:101EB000E3C081E08983E0C08B81882341F5A4E3FE
:101EC000B0E0E4E3F0E08081482F8C81282F30E0FF
:101ED00081E090E002C0880F991F2A95E2F7809573
:101EE00084238C93A5E3B0E0E5E3F0E08081482F04
:101EF0008C81282F30E081E090E0022E02C0880F14
:101F0000991F0A94E2F7809584238C93B5C08B8146
:101F1000813039F5A4E3B0E0E4E3F0E08081482FBC
:101F20008C81282F30E081E090E002C0880F991F5B
:101F30002A95E2F7809584238C93A5E3B0E0E5E34E
:101F4000F0E08081482F8C81282F30E081E090E004
:101F5000022E02C0880F991F0A94E2F7842B8C93FB
:101F60008BC08B818230A1F4A4E3B0E0E4E3F0E025
:101F70008081482F8C81282F30E081E090E0022E74
:101F800002C0880F991F0A94E2F7842B8C9374C0C7
:101F900081E0898371C08B81882341F5A1E3B0E0A2
:101FA000E1E3F0E08081482F8C81282F30E081E050
:101FB00090E002C0880F991F2A95E2F7809584234C
:101FC0008C93A2E3B0E0E2E3F0E08081482F8C81C3
:101FD000282F30E081E090E0022E02C0880F991F88
:101FE0000A94E2F7809584238C9346C08B818130DC
:101FF00039F5A1E3B0E0E1E3F0E08081482F8C8186
:10200000282F30E081E090E002C0880F991F2A95C8
:10201000E2F7809584238C93A2E3B0E0E2E3F0E062
:102020008081482F8C81282F30E081E090E0022EC3
:1020300002C0880F991F0A94E2F7842B8C931CC06E
:102040008B818230A1F4A1E3B0E0E1E3F0E0808194
:10205000482F8C81282F30E081E090E0022E02C0D2
:10206000880F991F0A94E2F7842B8C9305C081E0B6
:10207000898302C083E08983898126960FB6F8940C
:10208000DEBF0FBECDBFCF91DF910895DF93CF9319
:1020900000D000D000D0CDB7DEB78A836B834C83ED
:1020A00019828B81883018F082E08983ECC08A81A4
:1020B000282F30E03E832D838D819E8181309105D4
:1020C00009F449C02D813E81223031052CF48D81E7
:1020D0009E81009771F0D5C02D813E81223031055F
:1020E00009F46BC08D819E818330910509F497C0FE
:1020F000C8C08C818130A1F4ABE3B0E0EBE3F0E049
:102100008081482F8B81282F30E081E090E0022EE3
:1021100002C0880F991F0A94E2F7842B8C93B3C0F6
:102120008C818823A9F4ABE3B0E0EBE3F0E080819D
:10213000482F8B81282F30E081E090E0022E02C0F2
:10214000880F991F0A94E2F7809584238C939BC093
:1021500081E0898398C08C818130A1F4A8E3B0E04C
:10216000E8E3F0E08081482F8B81282F30E081E088
:1021700090E0022E02C0880F991F0A94E2F7842B88
:102180008C9381C08C818823A9F4A8E3B0E0E8E3B4
:10219000F0E08081482F8B81282F30E081E090E0B3
:1021A000022E02C0880F991F0A94E2F780958423BB
:1021B0008C9369C081E0898366C08C818130A1F4F1
:1021C000A5E3B0E0E5E3F0E08081482F8B81282F84
:1021D00030E081E090E0022E02C0880F991F0A943F
:1021E000E2F7842B8C934FC08C818823A9F4A5E35C
:1021F000B0E0E5E3F0E08081482F8B81282F30E0CC
:1022000081E090E0022E02C0880F991F0A94E2F745
:10221000809584238C9337C081E0898334C08C817E
:102220008130A1F4A2E3B0E0E2E3F0E08081482F46
:102230008B81282F30E081E090E0022E02C0880FD1
:10224000991F0A94E2F7842B8C931DC08C818823FC
:10225000A9F4A2E3B0E0E2E3F0E08081482F8B81B3
:10226000282F30E081E090E0022E02C0880F991FF5
:102270000A94E2F7809584238C9305C081E08983DA
:1022800002C083E08983898126960FB6F894DEBF69
:102290000FBECDBFCF91DF910895DF93CF9300D0D4
:1022A00000D00F92CDB7DEB78A836B8319828A8103
:1022B000843018F083E0898377C08B81883018F0F0
:1022C00082E0898371C08A81282F30E03D832C838E
:1022D0008C819D818130910549F12C813D81223095
:1022E00031052CF48C819D81009761F05BC02C81BD
:1022F0003D812230310571F18C819D8183309105C2
:10230000E9F150C0ABE3B0E0EBE3F0E08081482FAF
:102310008B81282F30E081E090E0022E02C0880FF0
:10232000991F0A94E2F784278C933EC0A8E3B0E09B
:10233000E8E3F0E08081482F8B81282F30E081E0B6
:1023400090E0022E02C0880F991F0A94E2F78427BA
:102350008C932AC0A5E3B0E0E5E3F0E08081482F4C
:102360008B81282F30E081E090E0022E02C0880FA0
:10237000991F0A94E2F784278C9316C0A2E3B0E079
:10238000E2E3F0E08081482F8B81282F30E081E06C
:1023900090E0022E02C0880F991F0A94E2F784276A
:1023A0008C9302C081E0898389810F900F900F90F8
:1023B0000F900F90CF91DF910895DF93CF93CDB71A
:1023C000DEB727970FB6F894DEBF0FBECDBF8A8366
:1023D0006B835D834C8319828C819D81009719F4F6
:1023E00085E08983AEC08B81883018F082E08983D4
:1023F000A8C08A81282F30E03F832E834E815F81E1
:1024000041305105C1F18E819F818230910534F4B4
:102410002E813F812115310571F08DC04E815F8184
:102420004230510509F447C08E819F818330910568
:1024300009F461C080C0E9E3F0E08081482F50E0FA
:102440008B81282F30E081E090E002C0880F991F37
:102450002A95E2F79A01282339238B81882F90E06F
:10246000A90102C0559547958A95E2F7CA01EC810A
:10247000FD81808366C0E6E3F0E08081482F50E074
:102480008B81282F30E081E090E002C0880F991FF7
:102490002A95E2F79A01282339238B81882F90E02F
:1024A000A90102C0559547958A95E2F7CA01EC81CA
:1024B000FD81808346C0E3E3F0E08081482F50E057
:1024C0008B81282F30E081E090E002C0880F991FB7
:1024D0002A95E2F79A01282339238B81882F90E0EF
:1024E000A90102C0559547958A95E2F7CA01EC818A
:1024F000FD81808326C0E0E3F0E08081482F50E03A
:102500008B81282F30E081E090E002C0880F991F76
:102510002A95E2F79A01282339238B81882F90E0AE
:10252000A90102C0559547958A95E2F7CA01EC8149
:10253000FD81808306C083E08983EC81FD818FEF7C
:102540008083898127960FB6F894DEBF0FBECDBF7A
:10255000CF91DF910895DF93CF9300D000D00F92F9
:10256000CDB7DEB78A836B8319828A81282F30E04A
:102570003D832C838C819D818130910509F43FC07E
:102580002C813D81223031052CF48C819D81009776
:1025900071F0ADC02C813D812230310509F457C066
:1025A0008C819D818330910509F479C0A0C08B8115
:1025B000882321F4EAE3F0E010829BC08B81813014
:1025C00041F4EAE3F0E01082EBE3F0E08FEF808388
:1025D00090C08B81823029F4EAE3F0E08FEF8083B2
:1025E00088C08B81882341F08B818F3F29F0EAE3FB
:1025F000F0E08B8180837DC084E089837AC08B8109
:10260000882321F4E7E3F0E0108273C08B818130EE
:1026100041F4E7E3F0E01082E8E3F0E08FEF80833D
:1026200068C08B81823029F4E7E3F0E08FEF80838C
:1026300060C08B81882341F08B818F3F29F0E7E3D5
:10264000F0E08B81808355C084E0898352C08B8108
:10265000882321F4E4E3F0E010824BC08B818130C9
:1026600041F4E4E3F0E01082E5E3F0E08FEF8083F3
:1026700040C08B81823029F4E4E3F0E08FEF808367
:1026800038C08B81882341F08B818F3F29F0E4E3B0
:10269000F0E08B8180832DC084E089832AC08B8108
:1026A000882321F4E1E3F0E0108223C08B818130A4
:1026B00041F4E1E3F0E01082E2E3F0E08FEF8083A9
:1026C00018C08B81823029F4E1E3F0E08FEF808342
:1026D00010C08B81882341F08B818F3F29F0EAE382
:1026E000F0E08B81808305C084E0898302C083E0B1
:1026F000898389810F900F900F900F900F90CF9149
:10270000DF910895DF93CF9300D000D000D0CDB7F4
:10271000DEB78B836C831A8219828C81813019F425
:102720008FEF898307C08C81882311F4198202C03E
:102730008C8189838B81282F30E03E832D838D818E
:102740009E8181309105D1F02D813E81223031056D
:102750002CF48D819E81009761F01FC02D813E81F8
:102760002230310581F08D819E818330910581F089
:1027700014C0EBE3F0E08981808311C0E8E3F0E06E
:10278000898180830CC0E5E3F0E08981808307C004
:10279000E2E3F0E08981808302C083E08A838A815A
:1027A00026960FB6F894DEBF0FBECDBFCF91DF9156
:1027B0000895DF93CF9300D000D0CDB7DEB78A83E2
:1027C00019828A81282F30E03C832B838B819C8166
:1027D00081309105E9F02B813C81223031052CF4C8
:1027E0008B819C81009761F02BC02B813C81223032
:1027F0003105B1F08B819C8183309105C9F020C0F7
:10280000ABE3B0E0EBE3F0E0808180958C931AC0FD
:10281000A8E3B0E0E8E3F0E0808180958C9312C0FB
:10282000A5E3B0E0E5E3F0E0808180958C930AC0F9
:10283000A2E3B0E0E2E3F0E0808180958C9302C0F7
:1028400083E0898389810F900F900F900F90CF9133
:10285000DF910895DF93CF9300D000D000D0CDB7A3
:10286000DEB78A837C836B8319828B819C8100977E
:1028700019F485E089833DC08A81282F30E03E83AA
:102880002D838D819E8181309105E1F02D813E81E6
:10289000223031052CF48D819E81009761F027C094
:1028A0002D813E8122303105A1F08D819E818330C2
:1028B0009105B1F01CC0E9E3F0E08081EB81FC817F
:1028C000808317C0E6E3F0E08081EB81FC818083A8
:1028D00010C0E3E3F0E08081EB81FC81808309C0DC
:1028E000E0E3F0E08081EB81FC81808302C083E043
:1028F0008983898126960FB6F894DEBF0FBECDBFBF
:10290000CF91DF910895DF93CF9300D000D0CDB762
:10291000DEB79C838B831A821982EB81FC818381D1
:10292000813019F481E0898309C0EB81FC818381C6
:10293000882311F4198202C084E08A838B819C81F0
:10294000009719F482E08A8330C0EB81FC81828198
:1029500062E00E94AB12882311F081E08A83EB8150
:10296000FC818081EB81FC81918162E0492F0E9492
:102970005E0E882311F081E08A83EB81FC818281E5
:1029800069810E948213882311F081E08A83EB81A0
:10299000FC818081EB81FC819181692F49810E94BA
:1029A0004610882311F081E08A838A810F900F906E
:1029B0000F900F90CF91DF910895DF93CF9300D0C8
:1029C00000D00F92CDB7DEB79C838B836D831A82C4
:1029D0001982EB81FC818381813051F48D81882FB4
:1029E00090E0FC01E859FE4F80818095898310C0FA
:1029F000EB81FC818381882349F48D81882F90E0CD
:102A0000FC01E859FE4F8081898302C084E08A83FB
:102A10008B819C81009719F482E08A8310C08D819C
:102A20008A3018F083E08A830AC0EB81FC818281BE
:102A300069810E948213882311F081E08A838A8150
:102A40000F900F900F900F900F90CF91DF910895FE
:102A5000DF93CF9300D000D0CDB7DEB79C838B83BC
:102A60001A821982EB81FC818381813011F41982F1
:102A70000AC0EB81FC818381882319F481E089837A
:102A800002C084E08A838B819C81009719F482E0E4
:102A90008A830EC0EB81FC818081EB81FC81918176
:102AA000692F49810E944610882311F081E08A83B2
:102AB0008A810F900F900F900F90CF91DF91089522
:102AC000DF93CF9300D000D0CDB7DEB79C838B834C
:102AD0001A821982EB81FC818381813019F481E0B3
:102AE000898309C0EB81FC818381882311F41982D9
:102AF00002C084E08A838B819C81009719F482E074
:102B00008A830EC0EB81FC818081EB81FC81918105
:102B1000692F49810E944610882311F081E08A8341
:102B20008A810F900F900F900F90CF91DF910895B1
:102B3000DF93CF9300D00F92CDB7DEB79B838A830C
:102B400019828A819B81009719F483E089830EC0E2
:102B5000EA81FB818081EA81FB81918162E0492FDA
:102B60000E945E0E882311F081E0898389810F9095
:102B70000F900F90CF91DF910895DF93CF9300D006
:102B800000D0CDB7DEB79C838B831A821982EB818C
:102B9000FC818281882311F419820AC0EB81FC81B7
:102BA0008281813019F481E0898302C082E08A83C6
:102BB0008B819C81009719F483E08A830EC0EB819E
:102BC000FC818081EB81FC819181692F49810E9488
:102BD0004610882311F081E08A838A810F900F903C
:102BE0000F900F90CF91DF910895DF93CF9300D096
:102BF00000D0CDB7DEB79C838B831A821982EB811C
:102C0000FC818281882319F481E0898309C0EB81EA
:102C1000FC818281813011F4198202C082E08A83B2
:102C20008B819C81009719F483E08A830EC0EB812D
:102C3000FC818081EB81FC819181692F49810E9417
:102C40004610882311F081E08A838A810F900F90CB
:102C50000F900F90CF91DF910895DF93CF9300D025
:102C60000F92CDB7DEB79B838A8319828A819B81BD
:102C7000009719F483E089830DC0EA81FB8180818C
:102C8000EA81FB819181692F0E944D11882311F007
:102C900081E0898389810F900F900F90CF91DF9110
:102CA0000895DF93CF9300D000D000D0CDB7DEB72A
:102CB0009C838B831A8219828B819C81009719F4E3
:102CC00082E08A833EC0EB81FC818081282F30E046
:102CD0003E832D838D819E8181309105B9F02D81B8
:102CE0003E81223031052CF48D819E81009761F068
:102CF00016C02D813E812230310559F08D819E8193
:102D00008330910549F00BC019820BC081E08983A3
:102D100008C082E0898305C083E0898302C081E026
:102D20008A8389816FE00E94AB12882311F081E0D1
:102D30008A8389816FEF0E948213882311F081E0DA
:102D40008A838A8126960FB6F894DEBF0FBECDBF68
:102D5000CF91DF910895DF93CF93CDB7DEB7299759
:102D60000FB6F894DEBF0FBECDBF9F838E837987E9
:102D700068871C828EE48B831A8249C01D82EE8193
:102D8000FF8180816A8140E00E944610882311F013
:102D900081E08C8319822AC0EE81FF814081898184
:102DA000982F9C5F9E012B5F3F4F842F692FA901B5
:102DB0000E94DD11882311F081E08C838D818823AE
:102DC00091F48A81482F50E08981282F30E0CA0190
:102DD000880F991F880F991F820F931FFC01EE58CF
:102DE000FE4F80818B8389818F5F898389818430C5
:102DF00098F2EE81FF8180816A8141E00E94461055
:102E0000882311F081E08C838A818F5F8A838A8195
:102E1000843008F4B3CFE885F9858B8180838C8179
:102E200029960FB6F894DEBF0FBECDBFCF91DF91CC
:102E30000895DF93CF9300D00F92CDB7DEB79B8379
:102E40008A8319828A819B81009719F483E08983A0
:102E50000EC0EA81FB818081EA81FB81918162E081
:102E6000492F0E945E0E882311F081E089838981B9
:102E70000F900F900F90CF91DF910895DF93CF9334
:102E800000D000D0CDB7DEB79C838B831A82198225
:102E9000EB81FC818281813019F481E0898309C052
:102EA000EB81FC818281882311F4198202C082E0C7
:102EB0008A838B819C81009719F483E08A830EC0FA
:102EC000EB81FC818081EB81FC819181692F4981BB
:102ED0000E944610882311F081E08A838A810F9036
:102EE0000F900F900F90CF91DF910895DF93CF93C4
:102EF00000D000D0CDB7DEB79C838B831A821982B5
:102F0000EB81FC818281813011F419820AC0EB814E
:102F1000FC818281882319F481E0898302C082E0E8
:102F20008A838B819C81009719F483E08A830EC089
:102F3000EB81FC818081EB81FC819181692F49814A
:102F40000E944610882311F081E08A838A810F90C5
:102F50000F900F900F90CF91DF910895DF93CF9353
:102F600000D00F92CDB7DEB79B838A8319828A8106
:102F70009B81009719F483E089830DC0EA81FB816E
:102F80008081EA81FB819181692F0E944D11882304
:102F900011F081E0898389810F900F900F90CF917C
:102FA000DF910895DF93CF9300D00F92CDB7DEB7B6
:102FB0009B838A8319828A819B81009719F483E01D
:102FC00089832FC0EA81FB818281882329F0EA81ED
:102FD000FB818281823079F4EA81FB818081EA8100
:102FE000FB81918160E0492F0E945E0E8823C9F029
:102FF00081E0898316C0EA81FB818281813079F486
:10300000EA81FB818081EA81FB81918161E0492F26
:103010000E945E0E882329F081E0898302C082E04D
:10302000898389810F900F900F90CF91DF91089540
:10303000DF93CF93CDB7DEB727970FB6F894DEBFF7
:103040000FBECDBF9D838C837F836E831A821B82CC
:1030500019828C819D81009721F08E819F8100973C
:1030600019F483E08A833FC0EC81FD818081EC818B
:10307000FD8191819E012D5F3F4F692FA9010E9423
:10308000DD11882319F081E08A832DC0EC81FD8158
:103090008281813029F0EC81FD818281882371F465
:1030A0008B81882319F481E089831DC08B81813055
:1030B00011F4198218C081E08A8315C0EC81FD816A
:1030C0008281823071F48B81882311F419820BC0C4
:1030D0008B81813019F481E0898305C081E08A8386
:1030E00002C082E08A83EE81FF81898180838A81A8
:1030F00027960FB6F894DEBF0FBECDBFCF91DF91FC
:103100000895DF93CF93CDB7DEB780E060E00E94F3
:103110004D11CF91DF910895DF93CF93CDB7DEB7F7
:1031200080E062E040E00E945E0E80E060E040E00F
:103130000E94461080E00E94D70A81E090E00E9441
:10314000A70B21E838E160E271EA87E090E0A9018D
:103150000E94B40CFFCF2F923F924F925F926F92DA
:103160007F928F929F92AF92BF92CF92DF92EF9217
:10317000FF920F931F93CF93DF93CDB7DEB7CA1B98
:10318000DB0B0FB6F894DEBF0FBECDBF09942A88C3
:10319000398848885F846E847D848C849B84AA846B
:1031A000B984C884DF80EE80FD800C811B81AA81F8
:1031B000B981CE0FD11D0FB6F894DEBF0FBECDBFC3
:0831C000ED010895F894FFCF22
:1031C80000000000000000000001020203030303E6
:1031D800040404040404040405050505050505059F
:1031E800050505050505050506060606060606067F
:1031F8000606060606060606060606060606060667
:10320800060606060606060607070707070707074E
:103218000707070707070707070707070707070736
:103228000707070707070707070707070707070726
:103238000707070707070707070707070707070716
:1032480007070707070707070808080808080808FE
:1032580008080808080808080808080808080808E6
:1032680008080808080808080808080808080808D6
:1032780008080808080808080808080808080808C6
:1032880008080808080808080808080808080808B6
:1032980008080808080808080808080808080808A6
:1032A8000808080808080808080808080808080896
:1032B8000808080808080808080808080808080886
:1032C80008080808080808083F065B4F666D7D0770
:1032D8007F6F3738392F3435362A3132332D633002
:0232E8003D2B7C
:00000001FF
